{
  "contractName": "OpenFundTokenLogic",
  "abi": [
    {
      "constant": false,
      "inputs": [
        {
          "name": "owner_",
          "type": "address"
        }
      ],
      "name": "setOwner",
      "outputs": [],
      "payable": false,
      "stateMutability": "nonpayable",
      "type": "function"
    },
    {
      "constant": false,
      "inputs": [
        {
          "name": "token_",
          "type": "address"
        }
      ],
      "name": "setToken",
      "outputs": [],
      "payable": false,
      "stateMutability": "nonpayable",
      "type": "function"
    },
    {
      "constant": true,
      "inputs": [],
      "name": "totalSupply",
      "outputs": [
        {
          "name": "",
          "type": "uint256"
        }
      ],
      "payable": false,
      "stateMutability": "view",
      "type": "function"
    },
    {
      "constant": true,
      "inputs": [
        {
          "name": "roleName",
          "type": "string"
        }
      ],
      "name": "senderHasRole",
      "outputs": [
        {
          "name": "",
          "type": "bool"
        }
      ],
      "payable": false,
      "stateMutability": "view",
      "type": "function"
    },
    {
      "constant": false,
      "inputs": [],
      "name": "restart",
      "outputs": [],
      "payable": false,
      "stateMutability": "nonpayable",
      "type": "function"
    },
    {
      "constant": true,
      "inputs": [],
      "name": "listNamesLen",
      "outputs": [
        {
          "name": "",
          "type": "uint256"
        }
      ],
      "payable": false,
      "stateMutability": "view",
      "type": "function"
    },
    {
      "constant": true,
      "inputs": [],
      "name": "freeTransfer",
      "outputs": [
        {
          "name": "",
          "type": "bool"
        }
      ],
      "payable": false,
      "stateMutability": "view",
      "type": "function"
    },
    {
      "constant": false,
      "inputs": [
        {
          "name": "src",
          "type": "address"
        },
        {
          "name": "dst",
          "type": "address"
        },
        {
          "name": "wad",
          "type": "uint256"
        }
      ],
      "name": "transferFrom",
      "outputs": [
        {
          "name": "",
          "type": "bool"
        }
      ],
      "payable": false,
      "stateMutability": "nonpayable",
      "type": "function"
    },
    {
      "constant": false,
      "inputs": [
        {
          "name": "isFree",
          "type": "bool"
        }
      ],
      "name": "setFreeTransfer",
      "outputs": [],
      "payable": false,
      "stateMutability": "nonpayable",
      "type": "function"
    },
    {
      "constant": true,
      "inputs": [],
      "name": "roles",
      "outputs": [
        {
          "name": "",
          "type": "address"
        }
      ],
      "payable": false,
      "stateMutability": "view",
      "type": "function"
    },
    {
      "constant": false,
      "inputs": [
        {
          "name": "listName",
          "type": "bytes32"
        }
      ],
      "name": "addWhiteList",
      "outputs": [],
      "payable": false,
      "stateMutability": "nonpayable",
      "type": "function"
    },
    {
      "constant": false,
      "inputs": [
        {
          "name": "listName",
          "type": "bytes32"
        },
        {
          "name": "guy",
          "type": "address"
        }
      ],
      "name": "removeFromWhiteList",
      "outputs": [],
      "payable": false,
      "stateMutability": "nonpayable",
      "type": "function"
    },
    {
      "constant": true,
      "inputs": [
        {
          "name": "",
          "type": "address"
        },
        {
          "name": "",
          "type": "bytes32"
        }
      ],
      "name": "whiteLists",
      "outputs": [
        {
          "name": "",
          "type": "bool"
        }
      ],
      "payable": false,
      "stateMutability": "view",
      "type": "function"
    },
    {
      "constant": false,
      "inputs": [],
      "name": "emergencyStop",
      "outputs": [],
      "payable": false,
      "stateMutability": "nonpayable",
      "type": "function"
    },
    {
      "constant": true,
      "inputs": [
        {
          "name": "",
          "type": "uint256"
        }
      ],
      "name": "listNames",
      "outputs": [
        {
          "name": "",
          "type": "bytes32"
        }
      ],
      "payable": false,
      "stateMutability": "view",
      "type": "function"
    },
    {
      "constant": false,
      "inputs": [
        {
          "name": "listName",
          "type": "bytes32"
        },
        {
          "name": "guy",
          "type": "address"
        }
      ],
      "name": "addToWhiteList",
      "outputs": [],
      "payable": false,
      "stateMutability": "nonpayable",
      "type": "function"
    },
    {
      "constant": true,
      "inputs": [
        {
          "name": "listName",
          "type": "bytes32"
        }
      ],
      "name": "indexOf",
      "outputs": [
        {
          "name": "",
          "type": "uint8"
        },
        {
          "name": "",
          "type": "bool"
        }
      ],
      "payable": false,
      "stateMutability": "view",
      "type": "function"
    },
    {
      "constant": true,
      "inputs": [
        {
          "name": "src",
          "type": "address"
        }
      ],
      "name": "balanceOf",
      "outputs": [
        {
          "name": "",
          "type": "uint256"
        }
      ],
      "payable": false,
      "stateMutability": "view",
      "type": "function"
    },
    {
      "constant": true,
      "inputs": [],
      "name": "data",
      "outputs": [
        {
          "name": "",
          "type": "address"
        }
      ],
      "payable": false,
      "stateMutability": "view",
      "type": "function"
    },
    {
      "constant": true,
      "inputs": [],
      "name": "stopped",
      "outputs": [
        {
          "name": "",
          "type": "bool"
        }
      ],
      "payable": false,
      "stateMutability": "view",
      "type": "function"
    },
    {
      "constant": true,
      "inputs": [],
      "name": "owner",
      "outputs": [
        {
          "name": "",
          "type": "address"
        }
      ],
      "payable": false,
      "stateMutability": "view",
      "type": "function"
    },
    {
      "constant": true,
      "inputs": [],
      "name": "contractHash",
      "outputs": [
        {
          "name": "",
          "type": "bytes32"
        }
      ],
      "payable": false,
      "stateMutability": "view",
      "type": "function"
    },
    {
      "constant": true,
      "inputs": [
        {
          "name": "listName",
          "type": "bytes32"
        }
      ],
      "name": "listExists",
      "outputs": [
        {
          "name": "",
          "type": "bool"
        }
      ],
      "payable": false,
      "stateMutability": "view",
      "type": "function"
    },
    {
      "constant": false,
      "inputs": [
        {
          "name": "listName",
          "type": "bytes32"
        }
      ],
      "name": "removeWhiteList",
      "outputs": [],
      "payable": false,
      "stateMutability": "nonpayable",
      "type": "function"
    },
    {
      "constant": false,
      "inputs": [
        {
          "name": "roles_",
          "type": "address"
        }
      ],
      "name": "setRolesContract",
      "outputs": [],
      "payable": false,
      "stateMutability": "nonpayable",
      "type": "function"
    },
    {
      "constant": false,
      "inputs": [
        {
          "name": "src",
          "type": "address"
        },
        {
          "name": "dst",
          "type": "address"
        },
        {
          "name": "wad",
          "type": "uint256"
        }
      ],
      "name": "transfer",
      "outputs": [
        {
          "name": "",
          "type": "bool"
        }
      ],
      "payable": false,
      "stateMutability": "nonpayable",
      "type": "function"
    },
    {
      "constant": false,
      "inputs": [
        {
          "name": "newLogic",
          "type": "address"
        }
      ],
      "name": "replaceLogic",
      "outputs": [],
      "payable": false,
      "stateMutability": "nonpayable",
      "type": "function"
    },
    {
      "constant": true,
      "inputs": [
        {
          "name": "src",
          "type": "address"
        },
        {
          "name": "spender",
          "type": "address"
        }
      ],
      "name": "allowance",
      "outputs": [
        {
          "name": "",
          "type": "uint256"
        }
      ],
      "payable": false,
      "stateMutability": "view",
      "type": "function"
    },
    {
      "constant": false,
      "inputs": [
        {
          "name": "src",
          "type": "address"
        },
        {
          "name": "dst",
          "type": "address"
        },
        {
          "name": "wad",
          "type": "uint256"
        }
      ],
      "name": "approve",
      "outputs": [
        {
          "name": "",
          "type": "bool"
        }
      ],
      "payable": false,
      "stateMutability": "nonpayable",
      "type": "function"
    },
    {
      "constant": true,
      "inputs": [
        {
          "name": "roleName",
          "type": "string"
        }
      ],
      "name": "hasRole",
      "outputs": [
        {
          "name": "",
          "type": "bool"
        }
      ],
      "payable": false,
      "stateMutability": "view",
      "type": "function"
    },
    {
      "constant": true,
      "inputs": [],
      "name": "token",
      "outputs": [
        {
          "name": "",
          "type": "address"
        }
      ],
      "payable": false,
      "stateMutability": "view",
      "type": "function"
    },
    {
      "inputs": [
        {
          "name": "token_",
          "type": "address"
        },
        {
          "name": "tokenData_",
          "type": "address"
        },
        {
          "name": "rolesContract",
          "type": "address"
        },
        {
          "name": "initialWallets",
          "type": "address[]"
        },
        {
          "name": "initialBalances",
          "type": "uint256[]"
        }
      ],
      "payable": false,
      "stateMutability": "nonpayable",
      "type": "constructor"
    },
    {
      "anonymous": false,
      "inputs": [
        {
          "indexed": false,
          "name": "newOwner",
          "type": "address"
        }
      ],
      "name": "LogSetOwner",
      "type": "event"
    },
    {
      "anonymous": false,
      "inputs": [
        {
          "indexed": false,
          "name": "listName",
          "type": "bytes32"
        }
      ],
      "name": "WhiteListAddition",
      "type": "event"
    },
    {
      "anonymous": false,
      "inputs": [
        {
          "indexed": false,
          "name": "listName",
          "type": "bytes32"
        },
        {
          "indexed": false,
          "name": "guy",
          "type": "address"
        }
      ],
      "name": "AdditionToWhiteList",
      "type": "event"
    },
    {
      "anonymous": false,
      "inputs": [
        {
          "indexed": false,
          "name": "listName",
          "type": "bytes32"
        }
      ],
      "name": "WhiteListRemoval",
      "type": "event"
    },
    {
      "anonymous": false,
      "inputs": [
        {
          "indexed": false,
          "name": "listName",
          "type": "bytes32"
        },
        {
          "indexed": false,
          "name": "guy",
          "type": "address"
        }
      ],
      "name": "RemovalFromWhiteList",
      "type": "event"
    },
    {
      "constant": false,
      "inputs": [
        {
          "name": "",
          "type": "address"
        },
        {
          "name": "",
          "type": "uint256"
        }
      ],
      "name": "mintFor",
      "outputs": [],
      "payable": false,
      "stateMutability": "nonpayable",
      "type": "function"
    },
    {
      "constant": false,
      "inputs": [
        {
          "name": "",
          "type": "address"
        },
        {
          "name": "",
          "type": "uint256"
        }
      ],
      "name": "burn",
      "outputs": [],
      "payable": false,
      "stateMutability": "nonpayable",
      "type": "function"
    }
  ],
  "bytecode": "0x60606040526000600360006101000a81548160ff0219169083151502179055506001600760006101000a81548160ff02191690831515021790555034156200004657600080fd5b60405162003da338038062003da3833981016040528080519060200190919080519060200190919080519060200190919080518201919060200180518201919050506000808686866040805190810160405280600a81526020017f546f6b656e4c6f6769630000000000000000000000000000000000000000000081525081336000806101000a81548173ffffffffffffffffffffffffffffffffffffffff021916908373ffffffffffffffffffffffffffffffffffffffff160217905550816040518082805190602001908083835b6020831015156200013d578051825260208201915060208101905060208303925062000116565b6001836020036101000a03801982511681845116808217855250505050505090500191505060405180910390206002816000191690555080600160006101000a81548173ffffffffffffffffffffffffffffffffffffffff021916908373ffffffffffffffffffffffffffffffffffffffff1602179055505050600073ffffffffffffffffffffffffffffffffffffffff168373ffffffffffffffffffffffffffffffffffffffff1614151515620001f457600080fd5b600073ffffffffffffffffffffffffffffffffffffffff168173ffffffffffffffffffffffffffffffffffffffff16141515156200023157600080fd5b82600460006101000a81548173ffffffffffffffffffffffffffffffffffffffff021916908373ffffffffffffffffffffffffffffffffffffffff160217905550600073ffffffffffffffffffffffffffffffffffffffff168273ffffffffffffffffffffffffffffffffffffffff1614156200037a573033620002b462000777565b808373ffffffffffffffffffffffffffffffffffffffff1673ffffffffffffffffffffffffffffffffffffffff1681526020018273ffffffffffffffffffffffffffffffffffffffff1673ffffffffffffffffffffffffffffffffffffffff16815260200192505050604051809103906000f08015156200033457600080fd5b600360016101000a81548173ffffffffffffffffffffffffffffffffffffffff021916908373ffffffffffffffffffffffffffffffffffffffff160217905550620003bc565b81600360016101000a81548173ffffffffffffffffffffffffffffffffffffffff021916908373ffffffffffffffffffffffffffffffffffffffff1602179055505b505050600073ffffffffffffffffffffffffffffffffffffffff168673ffffffffffffffffffffffffffffffffffffffff1614156200074d57835183511415156200040657600080fd5b600090505b8351811015620006a657600360019054906101000a900473ffffffffffffffffffffffffffffffffffffffff1673ffffffffffffffffffffffffffffffffffffffff166328e69b1685838151811015156200046257fe5b9060200190602002015185848151811015156200047b57fe5b906020019060200201516040518363ffffffff167c0100000000000000000000000000000000000000000000000000000000028152600401808373ffffffffffffffffffffffffffffffffffffffff1673ffffffffffffffffffffffffffffffffffffffff16815260200182815260200192505050600060405180830381600087803b15156200050a57600080fd5b6102c65a03f115156200051c57600080fd5b505050600460009054906101000a900473ffffffffffffffffffffffffffffffffffffffff1673ffffffffffffffffffffffffffffffffffffffff1663e31a7c01600086848151811015156200056e57fe5b9060200190602002015186858151811015156200058757fe5b906020019060200201516040518463ffffffff167c0100000000000000000000000000000000000000000000000000000000028152600401808473ffffffffffffffffffffffffffffffffffffffff1673ffffffffffffffffffffffffffffffffffffffff1681526020018373ffffffffffffffffffffffffffffffffffffffff1673ffffffffffffffffffffffffffffffffffffffff1681526020018281526020019350505050600060405180830381600087803b15156200064957600080fd5b6102c65a03f115156200065b57600080fd5b505050620006968284838151811015156200067257fe5b906020019060200201516200075a6401000000000262002c96176401000000009004565b915080806001019150506200040b565b600360019054906101000a900473ffffffffffffffffffffffffffffffffffffffff1673ffffffffffffffffffffffffffffffffffffffff16633b4c4b25836040518263ffffffff167c010000000000000000000000000000000000000000000000000000000002815260040180828152602001915050600060405180830381600087803b15156200073757600080fd5b6102c65a03f115156200074957600080fd5b5050505b5050505050505062000788565b600082828401915081101515156200077157600080fd5b92915050565b6040516108b080620034f383390190565b612d5b80620007986000396000f3006060604052600436106101a1576000357c0100000000000000000000000000000000000000000000000000000000900463ffffffff16806313af4035146101a6578063144fa6d7146101df57806318160ddd146102185780631ca03b8e146102415780631ef3755d146102b65780631f99c458146102cb578063211ed6c1146102f457806323b872dd146103215780632abfaf1f1461039a578063392f5f64146103bf5780633bd04d69146104145780633f32aa701461043b5780634b4d0d451461048157806363a599a4146104df57806366272623146104f4578063693382a9146105335780636f4ce56a1461057957806370a08231146105c557806373d4a13a1461061257806375f12b21146106675780638da5cb5b14610694578063904c6094146106e95780639495ad6c1461071a5780639aef8999146107595780639dc29fac14610780578063afa202ac146107c2578063beabacc8146107fb578063c8d47f1614610874578063da1919b3146108ad578063dd62ed3e146108ef578063e1f21c671461095b578063e3c33a9b146109d4578063fc0c546a14610a49575b600080fd5b34156101b157600080fd5b6101dd600480803573ffffffffffffffffffffffffffffffffffffffff16906020019091905050610a9e565b005b34156101ea57600080fd5b610216600480803573ffffffffffffffffffffffffffffffffffffffff16906020019091905050610bc0565b005b341561022357600080fd5b61022b610c5f565b6040518082815260200191505060405180910390f35b341561024c57600080fd5b61029c600480803590602001908201803590602001908080601f01602080910402602001604051908101604052809392919081815260200183838082843782019150505050505091905050610d0f565b604051808215151515815260200191505060405180910390f35b34156102c157600080fd5b6102c9610e8d565b005b34156102d657600080fd5b6102de610f4c565b6040518082815260200191505060405180910390f35b34156102ff57600080fd5b610307610f59565b604051808215151515815260200191505060405180910390f35b341561032c57600080fd5b610380600480803573ffffffffffffffffffffffffffffffffffffffff1690602001909190803573ffffffffffffffffffffffffffffffffffffffff16906020019091908035906020019091905050610f6c565b604051808215151515815260200191505060405180910390f35b34156103a557600080fd5b6103bd60048080351515906020019091905050611658565b005b34156103ca57600080fd5b6103d26116d0565b604051808273ffffffffffffffffffffffffffffffffffffffff1673ffffffffffffffffffffffffffffffffffffffff16815260200191505060405180910390f35b341561041f57600080fd5b6104396004808035600019169060200190919050506116f6565b005b341561044657600080fd5b61047f60048080356000191690602001909190803573ffffffffffffffffffffffffffffffffffffffff169060200190919050506117dc565b005b341561048c57600080fd5b6104c5600480803573ffffffffffffffffffffffffffffffffffffffff1690602001909190803560001916906020019091905050611923565b604051808215151515815260200191505060405180910390f35b34156104ea57600080fd5b6104f2611952565b005b34156104ff57600080fd5b6105156004808035906020019091905050611a11565b60405180826000191660001916815260200191505060405180910390f35b341561053e57600080fd5b61057760048080356000191690602001909190803573ffffffffffffffffffffffffffffffffffffffff16906020019091905050611a35565b005b341561058457600080fd5b61059e600480803560001916906020019091905050611b7c565b604051808360ff1660ff168152602001821515151581526020019250505060405180910390f35b34156105d057600080fd5b6105fc600480803573ffffffffffffffffffffffffffffffffffffffff16906020019091905050611bec565b6040518082815260200191505060405180910390f35b341561061d57600080fd5b610625611cd5565b604051808273ffffffffffffffffffffffffffffffffffffffff1673ffffffffffffffffffffffffffffffffffffffff16815260200191505060405180910390f35b341561067257600080fd5b61067a611cfb565b604051808215151515815260200191505060405180910390f35b341561069f57600080fd5b6106a7611d0e565b604051808273ffffffffffffffffffffffffffffffffffffffff1673ffffffffffffffffffffffffffffffffffffffff16815260200191505060405180910390f35b34156106f457600080fd5b6106fc611d33565b60405180826000191660001916815260200191505060405180910390f35b341561072557600080fd5b61073f600480803560001916906020019091905050611d39565b604051808215151515815260200191505060405180910390f35b341561076457600080fd5b61077e600480803560001916906020019091905050611d51565b005b341561078b57600080fd5b6107c0600480803573ffffffffffffffffffffffffffffffffffffffff16906020019091908035906020019091905050611e93565b005b34156107cd57600080fd5b6107f9600480803573ffffffffffffffffffffffffffffffffffffffff16906020019091905050611efa565b005b341561080657600080fd5b61085a600480803573ffffffffffffffffffffffffffffffffffffffff1690602001909190803573ffffffffffffffffffffffffffffffffffffffff16906020019091908035906020019091905050611ff6565b604051808215151515815260200191505060405180910390f35b341561087f57600080fd5b6108ab600480803573ffffffffffffffffffffffffffffffffffffffff169060200190919050506124ba565b005b34156108b857600080fd5b6108ed600480803573ffffffffffffffffffffffffffffffffffffffff169060200190919080359060200190919050506126ef565b005b34156108fa57600080fd5b610945600480803573ffffffffffffffffffffffffffffffffffffffff1690602001909190803573ffffffffffffffffffffffffffffffffffffffff16906020019091905050612756565b6040518082815260200191505060405180910390f35b341561096657600080fd5b6109ba600480803573ffffffffffffffffffffffffffffffffffffffff1690602001909190803573ffffffffffffffffffffffffffffffffffffffff16906020019091908035906020019091905050612874565b604051808215151515815260200191505060405180910390f35b34156109df57600080fd5b610a2f600480803590602001908201803590602001908080601f016020809104026020016040519081016040528093929190818152602001838380828437820191505050505050919050506129e6565b604051808215151515815260200191505060405180910390f35b3415610a5457600080fd5b610a5c612b1f565b604051808273ffffffffffffffffffffffffffffffffffffffff1673ffffffffffffffffffffffffffffffffffffffff16815260200191505060405180910390f35b6000809054906101000a900473ffffffffffffffffffffffffffffffffffffffff1673ffffffffffffffffffffffffffffffffffffffff163373ffffffffffffffffffffffffffffffffffffffff16141515610af957600080fd5b806000806101000a81548173ffffffffffffffffffffffffffffffffffffffff021916908373ffffffffffffffffffffffffffffffffffffffff1602179055507fce241d7ca1f669fee44b6fc00b8eba2df3bb514eed0f6f668f8f89096e81ed946000809054906101000a900473ffffffffffffffffffffffffffffffffffffffff16604051808273ffffffffffffffffffffffffffffffffffffffff1673ffffffffffffffffffffffffffffffffffffffff16815260200191505060405180910390a150565b6000809054906101000a900473ffffffffffffffffffffffffffffffffffffffff1673ffffffffffffffffffffffffffffffffffffffff163373ffffffffffffffffffffffffffffffffffffffff16141515610c1b57600080fd5b80600460006101000a81548173ffffffffffffffffffffffffffffffffffffffff021916908373ffffffffffffffffffffffffffffffffffffffff16021790555050565b6000600360019054906101000a900473ffffffffffffffffffffffffffffffffffffffff1673ffffffffffffffffffffffffffffffffffffffff1663047fc9aa6000604051602001526040518163ffffffff167c0100000000000000000000000000000000000000000000000000000000028152600401602060405180830381600087803b1515610cef57600080fd5b6102c65a03f11515610d0057600080fd5b50505060405180519050905090565b6000610d1a826129e6565b8015610e865750600160009054906101000a900473ffffffffffffffffffffffffffffffffffffffff1673ffffffffffffffffffffffffffffffffffffffff16638b51ca42600254846040518082805190602001908083835b602083101515610d985780518252602082019150602081019050602083039250610d73565b6001836020036101000a0380198251168184511680821785525050505050509050019150506040518091039020336000604051602001526040518463ffffffff167c010000000000000000000000000000000000000000000000000000000002815260040180846000191660001916815260200183600019166000191681526020018273ffffffffffffffffffffffffffffffffffffffff1673ffffffffffffffffffffffffffffffffffffffff1681526020019350505050602060405180830381600087803b1515610e6a57600080fd5b6102c65a03f11515610e7b57600080fd5b505050604051805190505b9050919050565b6040805190810160405280600981526020017f72657374617274657200000000000000000000000000000000000000000000008152506000809054906101000a900473ffffffffffffffffffffffffffffffffffffffff1673ffffffffffffffffffffffffffffffffffffffff163373ffffffffffffffffffffffffffffffffffffffff161480610f235750610f2281610d0f565b5b1515610f2e57600080fd5b6000600360006101000a81548160ff02191690831515021790555050565b6000600580549050905090565b600760009054906101000a900460ff1681565b6000600460009054906101000a900473ffffffffffffffffffffffffffffffffffffffff1673ffffffffffffffffffffffffffffffffffffffff163373ffffffffffffffffffffffffffffffffffffffff16141515610fc757fe5b8383600760009054906101000a900460ff168061103057506000809054906101000a900473ffffffffffffffffffffffffffffffffffffffff1673ffffffffffffffffffffffffffffffffffffffff168273ffffffffffffffffffffffffffffffffffffffff16145b8061108757506000809054906101000a900473ffffffffffffffffffffffffffffffffffffffff1673ffffffffffffffffffffffffffffffffffffffff168173ffffffffffffffffffffffffffffffffffffffff16145b8061109857506110978282612b45565b5b15156110a357600080fd5b600360019054906101000a900473ffffffffffffffffffffffffffffffffffffffff1673ffffffffffffffffffffffffffffffffffffffff1663e32d5cf88787611200600360019054906101000a900473ffffffffffffffffffffffffffffffffffffffff1673ffffffffffffffffffffffffffffffffffffffff1663a32ce11e8c8c6000604051602001526040518363ffffffff167c0100000000000000000000000000000000000000000000000000000000028152600401808373ffffffffffffffffffffffffffffffffffffffff1673ffffffffffffffffffffffffffffffffffffffff1681526020018273ffffffffffffffffffffffffffffffffffffffff1673ffffffffffffffffffffffffffffffffffffffff16815260200192505050602060405180830381600087803b15156111df57600080fd5b6102c65a03f115156111f057600080fd5b5050506040518051905089612c7a565b6040518463ffffffff167c0100000000000000000000000000000000000000000000000000000000028152600401808473ffffffffffffffffffffffffffffffffffffffff1673ffffffffffffffffffffffffffffffffffffffff1681526020018373ffffffffffffffffffffffffffffffffffffffff1673ffffffffffffffffffffffffffffffffffffffff1681526020018281526020019350505050600060405180830381600087803b15156112b757600080fd5b6102c65a03f115156112c857600080fd5b505050600360019054906101000a900473ffffffffffffffffffffffffffffffffffffffff1673ffffffffffffffffffffffffffffffffffffffff166328e69b16876113f3600360019054906101000a900473ffffffffffffffffffffffffffffffffffffffff1673ffffffffffffffffffffffffffffffffffffffff166327e235e38b6000604051602001526040518263ffffffff167c0100000000000000000000000000000000000000000000000000000000028152600401808273ffffffffffffffffffffffffffffffffffffffff1673ffffffffffffffffffffffffffffffffffffffff168152602001915050602060405180830381600087803b15156113d257600080fd5b6102c65a03f115156113e357600080fd5b5050506040518051905088612c7a565b6040518363ffffffff167c0100000000000000000000000000000000000000000000000000000000028152600401808373ffffffffffffffffffffffffffffffffffffffff1673ffffffffffffffffffffffffffffffffffffffff16815260200182815260200192505050600060405180830381600087803b151561147757600080fd5b6102c65a03f1151561148857600080fd5b505050600360019054906101000a900473ffffffffffffffffffffffffffffffffffffffff1673ffffffffffffffffffffffffffffffffffffffff166328e69b16866115b3600360019054906101000a900473ffffffffffffffffffffffffffffffffffffffff1673ffffffffffffffffffffffffffffffffffffffff166327e235e38a6000604051602001526040518263ffffffff167c0100000000000000000000000000000000000000000000000000000000028152600401808273ffffffffffffffffffffffffffffffffffffffff1673ffffffffffffffffffffffffffffffffffffffff168152602001915050602060405180830381600087803b151561159257600080fd5b6102c65a03f115156115a357600080fd5b5050506040518051905088612c96565b6040518363ffffffff167c0100000000000000000000000000000000000000000000000000000000028152600401808373ffffffffffffffffffffffffffffffffffffffff1673ffffffffffffffffffffffffffffffffffffffff16815260200182815260200192505050600060405180830381600087803b151561163757600080fd5b6102c65a03f1151561164857600080fd5b5050506001925050509392505050565b6000809054906101000a900473ffffffffffffffffffffffffffffffffffffffff1673ffffffffffffffffffffffffffffffffffffffff163373ffffffffffffffffffffffffffffffffffffffff161415156116b357600080fd5b80600760006101000a81548160ff02191690831515021790555050565b600160009054906101000a900473ffffffffffffffffffffffffffffffffffffffff1681565b6040805190810160405280600581526020017f61646d696e00000000000000000000000000000000000000000000000000000081525061173581610d0f565b151561174057600080fd5b61174982611d39565b15151561175557600080fd5b61010060058054905010151561176a57600080fd5b6005805480600101828161177e9190612cb2565b9160005260206000209001600084909190915090600019169055507fa5d506d332e2fbbbb90028387456b914ac7868b62a517124dd26140d85460dec8260405180826000191660001916815260200191505060405180910390a15050565b6040805190810160405280600b81526020017f757365724d616e6167657200000000000000000000000000000000000000000081525061181b81610d0f565b151561182657600080fd5b61182f83611d39565b151561183a57600080fd5b6000600660008473ffffffffffffffffffffffffffffffffffffffff1673ffffffffffffffffffffffffffffffffffffffff1681526020019081526020016000206000856000191660001916815260200190815260200160002060006101000a81548160ff0219169083151502179055507fd46c98d1ab849c2a02ffd10a34d3c3f4089b6b290177e9a8beeedaf894c04da583836040518083600019166000191681526020018273ffffffffffffffffffffffffffffffffffffffff1673ffffffffffffffffffffffffffffffffffffffff1681526020019250505060405180910390a1505050565b60066020528160005260406000206020528060005260406000206000915091509054906101000a900460ff1681565b6040805190810160405280600781526020017f73746f70706572000000000000000000000000000000000000000000000000008152506000809054906101000a900473ffffffffffffffffffffffffffffffffffffffff1673ffffffffffffffffffffffffffffffffffffffff163373ffffffffffffffffffffffffffffffffffffffff1614806119e857506119e781610d0f565b5b15156119f357600080fd5b6001600360006101000a81548160ff02191690831515021790555050565b600581815481101515611a2057fe5b90600052602060002090016000915090505481565b6040805190810160405280600b81526020017f757365724d616e61676572000000000000000000000000000000000000000000815250611a7481610d0f565b1515611a7f57600080fd5b611a8883611d39565b1515611a9357600080fd5b6001600660008473ffffffffffffffffffffffffffffffffffffffff1673ffffffffffffffffffffffffffffffffffffffff1681526020019081526020016000206000856000191660001916815260200190815260200160002060006101000a81548160ff0219169083151502179055507f9ae5c799654d335786f50172a6d4cee45be7824601a09b0706d48d5ac69220cf83836040518083600019166000191681526020018273ffffffffffffffffffffffffffffffffffffffff1673ffffffffffffffffffffffffffffffffffffffff1681526020019250505060405180910390a1505050565b60008060008090505b6005805490508160ff161015611bdb57836000191660058260ff16815481101515611bac57fe5b906000526020600020900154600019161415611bce5780600192509250611be6565b8080600101915050611b85565b600080819150925092505b50915091565b6000600360019054906101000a900473ffffffffffffffffffffffffffffffffffffffff1673ffffffffffffffffffffffffffffffffffffffff166327e235e3836000604051602001526040518263ffffffff167c0100000000000000000000000000000000000000000000000000000000028152600401808273ffffffffffffffffffffffffffffffffffffffff1673ffffffffffffffffffffffffffffffffffffffff168152602001915050602060405180830381600087803b1515611cb357600080fd5b6102c65a03f11515611cc457600080fd5b505050604051805190509050919050565b600360019054906101000a900473ffffffffffffffffffffffffffffffffffffffff1681565b600360009054906101000a900460ff1681565b6000809054906101000a900473ffffffffffffffffffffffffffffffffffffffff1681565b60025481565b600080611d4583611b7c565b91505080915050919050565b6000806040805190810160405280600581526020017f61646d696e000000000000000000000000000000000000000000000000000000815250611d9381610d0f565b1515611d9e57600080fd5b611da784611b7c565b92509250811515611db757600080fd5b6001600580549050038360ff161015611e13576005600160058054905003815481101515611de157fe5b90600052602060002090015460058460ff16815481101515611dff57fe5b906000526020600020900181600019169055505b6005600160058054905003815481101515611e2a57fe5b90600052602060002090016000905560058054600190039081611e4d9190612cde565b507f16caca4d054acd6dc7362e8f47dc66a83a70be26221b729a4ab466d6b86d3e468460405180826000191660001916815260200191505060405180910390a150505050565b600460009054906101000a900473ffffffffffffffffffffffffffffffffffffffff1673ffffffffffffffffffffffffffffffffffffffff163373ffffffffffffffffffffffffffffffffffffffff16141515611eec57fe5b60001515611ef657fe5b5050565b6000809054906101000a900473ffffffffffffffffffffffffffffffffffffffff1673ffffffffffffffffffffffffffffffffffffffff163373ffffffffffffffffffffffffffffffffffffffff16141515611f5557600080fd5b600160009054906101000a900473ffffffffffffffffffffffffffffffffffffffff1673ffffffffffffffffffffffffffffffffffffffff163073ffffffffffffffffffffffffffffffffffffffff1614151515611fb257600080fd5b80600160006101000a81548173ffffffffffffffffffffffffffffffffffffffff021916908373ffffffffffffffffffffffffffffffffffffffff16021790555050565b6000600460009054906101000a900473ffffffffffffffffffffffffffffffffffffffff1673ffffffffffffffffffffffffffffffffffffffff163373ffffffffffffffffffffffffffffffffffffffff1614151561205157fe5b8383600760009054906101000a900460ff16806120ba57506000809054906101000a900473ffffffffffffffffffffffffffffffffffffffff1673ffffffffffffffffffffffffffffffffffffffff168273ffffffffffffffffffffffffffffffffffffffff16145b8061211157506000809054906101000a900473ffffffffffffffffffffffffffffffffffffffff1673ffffffffffffffffffffffffffffffffffffffff168173ffffffffffffffffffffffffffffffffffffffff16145b8061212257506121218282612b45565b5b151561212d57600080fd5b600360019054906101000a900473ffffffffffffffffffffffffffffffffffffffff1673ffffffffffffffffffffffffffffffffffffffff166328e69b1687612255600360019054906101000a900473ffffffffffffffffffffffffffffffffffffffff1673ffffffffffffffffffffffffffffffffffffffff166327e235e38b6000604051602001526040518263ffffffff167c0100000000000000000000000000000000000000000000000000000000028152600401808273ffffffffffffffffffffffffffffffffffffffff1673ffffffffffffffffffffffffffffffffffffffff168152602001915050602060405180830381600087803b151561223457600080fd5b6102c65a03f1151561224557600080fd5b5050506040518051905088612c7a565b6040518363ffffffff167c0100000000000000000000000000000000000000000000000000000000028152600401808373ffffffffffffffffffffffffffffffffffffffff1673ffffffffffffffffffffffffffffffffffffffff16815260200182815260200192505050600060405180830381600087803b15156122d957600080fd5b6102c65a03f115156122ea57600080fd5b505050600360019054906101000a900473ffffffffffffffffffffffffffffffffffffffff1673ffffffffffffffffffffffffffffffffffffffff166328e69b1686612415600360019054906101000a900473ffffffffffffffffffffffffffffffffffffffff1673ffffffffffffffffffffffffffffffffffffffff166327e235e38a6000604051602001526040518263ffffffff167c0100000000000000000000000000000000000000000000000000000000028152600401808273ffffffffffffffffffffffffffffffffffffffff1673ffffffffffffffffffffffffffffffffffffffff168152602001915050602060405180830381600087803b15156123f457600080fd5b6102c65a03f1151561240557600080fd5b5050506040518051905088612c96565b6040518363ffffffff167c0100000000000000000000000000000000000000000000000000000000028152600401808373ffffffffffffffffffffffffffffffffffffffff1673ffffffffffffffffffffffffffffffffffffffff16815260200182815260200192505050600060405180830381600087803b151561249957600080fd5b6102c65a03f115156124aa57600080fd5b5050506001925050509392505050565b6000809054906101000a900473ffffffffffffffffffffffffffffffffffffffff1673ffffffffffffffffffffffffffffffffffffffff163373ffffffffffffffffffffffffffffffffffffffff1614151561251557600080fd5b600460009054906101000a900473ffffffffffffffffffffffffffffffffffffffff1673ffffffffffffffffffffffffffffffffffffffff166371857000826040518263ffffffff167c0100000000000000000000000000000000000000000000000000000000028152600401808273ffffffffffffffffffffffffffffffffffffffff1673ffffffffffffffffffffffffffffffffffffffff168152602001915050600060405180830381600087803b15156125d157600080fd5b6102c65a03f115156125e257600080fd5b505050600360019054906101000a900473ffffffffffffffffffffffffffffffffffffffff1673ffffffffffffffffffffffffffffffffffffffff16633a3d523f826040518263ffffffff167c0100000000000000000000000000000000000000000000000000000000028152600401808273ffffffffffffffffffffffffffffffffffffffff1673ffffffffffffffffffffffffffffffffffffffff168152602001915050600060405180830381600087803b15156126a157600080fd5b6102c65a03f115156126b257600080fd5b5050506000809054906101000a900473ffffffffffffffffffffffffffffffffffffffff1673ffffffffffffffffffffffffffffffffffffffff16ff5b600460009054906101000a900473ffffffffffffffffffffffffffffffffffffffff1673ffffffffffffffffffffffffffffffffffffffff163373ffffffffffffffffffffffffffffffffffffffff1614151561274857fe5b6000151561275257fe5b5050565b6000600360019054906101000a900473ffffffffffffffffffffffffffffffffffffffff1673ffffffffffffffffffffffffffffffffffffffff1663a32ce11e84846000604051602001526040518363ffffffff167c0100000000000000000000000000000000000000000000000000000000028152600401808373ffffffffffffffffffffffffffffffffffffffff1673ffffffffffffffffffffffffffffffffffffffff1681526020018273ffffffffffffffffffffffffffffffffffffffff1673ffffffffffffffffffffffffffffffffffffffff16815260200192505050602060405180830381600087803b151561285157600080fd5b6102c65a03f1151561286257600080fd5b50505060405180519050905092915050565b6000600460009054906101000a900473ffffffffffffffffffffffffffffffffffffffff1673ffffffffffffffffffffffffffffffffffffffff163373ffffffffffffffffffffffffffffffffffffffff161415156128cf57fe5b600360019054906101000a900473ffffffffffffffffffffffffffffffffffffffff1673ffffffffffffffffffffffffffffffffffffffff1663e32d5cf88585856040518463ffffffff167c0100000000000000000000000000000000000000000000000000000000028152600401808473ffffffffffffffffffffffffffffffffffffffff1673ffffffffffffffffffffffffffffffffffffffff1681526020018373ffffffffffffffffffffffffffffffffffffffff1673ffffffffffffffffffffffffffffffffffffffff1681526020018281526020019350505050600060405180830381600087803b15156129c757600080fd5b6102c65a03f115156129d857600080fd5b505050600190509392505050565b6000600160009054906101000a900473ffffffffffffffffffffffffffffffffffffffff1673ffffffffffffffffffffffffffffffffffffffff16633037cea3600254846040518082805190602001908083835b602083101515612a5f5780518252602082019150602081019050602083039250612a3a565b6001836020036101000a03801982511681845116808217855250505050505090500191505060405180910390206000604051602001526040518363ffffffff167c0100000000000000000000000000000000000000000000000000000000028152600401808360001916600019168152602001826000191660001916815260200192505050602060405180830381600087803b1515612afd57600080fd5b6102c65a03f11515612b0e57600080fd5b505050604051805190509050919050565b600460009054906101000a900473ffffffffffffffffffffffffffffffffffffffff1681565b60008060008091505b6005805490508260ff161015612c6d5760058260ff16815481101515612b7057fe5b9060005260206000209001549050600660008673ffffffffffffffffffffffffffffffffffffffff1673ffffffffffffffffffffffffffffffffffffffff1681526020019081526020016000206000826000191660001916815260200190815260200160002060009054906101000a900460ff168015612c525750600660008573ffffffffffffffffffffffffffffffffffffffff1673ffffffffffffffffffffffffffffffffffffffff1681526020019081526020016000206000826000191660001916815260200190815260200160002060009054906101000a900460ff165b15612c605760019250612c72565b8180600101925050612b4e565b600092505b505092915050565b60008282840391508111151515612c9057600080fd5b92915050565b60008282840191508110151515612cac57600080fd5b92915050565b815481835581811511612cd957818360005260206000209182019101612cd89190612d0a565b5b505050565b815481835581811511612d0557818360005260206000209182019101612d049190612d0a565b5b505050565b612d2c91905b80821115612d28576000816000905550600101612d10565b5090565b905600a165627a7a7230582038c2fbaec23479403f75bfd77cbf8f877f3d3cf0b211aa2cce10aa9fd076397a00296060604052341561000f57600080fd5b6040516040806108b083398101604052808051906020019091908051906020019091905050336000806101000a81548173ffffffffffffffffffffffffffffffffffffffff021916908373ffffffffffffffffffffffffffffffffffffffff16021790555081600460006101000a81548173ffffffffffffffffffffffffffffffffffffffff021916908373ffffffffffffffffffffffffffffffffffffffff160217905550806000806101000a81548173ffffffffffffffffffffffffffffffffffffffff021916908373ffffffffffffffffffffffffffffffffffffffff160217905550600154600260008060009054906101000a900473ffffffffffffffffffffffffffffffffffffffff1673ffffffffffffffffffffffffffffffffffffffff1673ffffffffffffffffffffffffffffffffffffffff1681526020019081526020016000208190555050506107438061016d6000396000f300606060405260043610610099576000357c0100000000000000000000000000000000000000000000000000000000900463ffffffff168063047fc9aa1461009e57806313af4035146100c757806327e235e31461010057806328e69b161461014d5780633a3d523f1461018f5780633b4c4b25146101c85780638da5cb5b146101eb578063a32ce11e14610240578063e32d5cf8146102ac575b600080fd5b34156100a957600080fd5b6100b161030d565b6040518082815260200191505060405180910390f35b34156100d257600080fd5b6100fe600480803573ffffffffffffffffffffffffffffffffffffffff16906020019091905050610313565b005b341561010b57600080fd5b610137600480803573ffffffffffffffffffffffffffffffffffffffff16906020019091905050610435565b6040518082815260200191505060405180910390f35b341561015857600080fd5b61018d600480803573ffffffffffffffffffffffffffffffffffffffff1690602001909190803590602001909190505061044d565b005b341561019a57600080fd5b6101c6600480803573ffffffffffffffffffffffffffffffffffffffff169060200190919050506104ee565b005b34156101d357600080fd5b6101e9600480803590602001909190505061058b565b005b34156101f657600080fd5b6101fe6105ee565b604051808273ffffffffffffffffffffffffffffffffffffffff1673ffffffffffffffffffffffffffffffffffffffff16815260200191505060405180910390f35b341561024b57600080fd5b610296600480803573ffffffffffffffffffffffffffffffffffffffff1690602001909190803573ffffffffffffffffffffffffffffffffffffffff16906020019091905050610613565b6040518082815260200191505060405180910390f35b34156102b757600080fd5b61030b600480803573ffffffffffffffffffffffffffffffffffffffff1690602001909190803573ffffffffffffffffffffffffffffffffffffffff16906020019091908035906020019091905050610638565b005b60015481565b6000809054906101000a900473ffffffffffffffffffffffffffffffffffffffff1673ffffffffffffffffffffffffffffffffffffffff163373ffffffffffffffffffffffffffffffffffffffff1614151561036e57600080fd5b806000806101000a81548173ffffffffffffffffffffffffffffffffffffffff021916908373ffffffffffffffffffffffffffffffffffffffff1602179055507fce241d7ca1f669fee44b6fc00b8eba2df3bb514eed0f6f668f8f89096e81ed946000809054906101000a900473ffffffffffffffffffffffffffffffffffffffff16604051808273ffffffffffffffffffffffffffffffffffffffff1673ffffffffffffffffffffffffffffffffffffffff16815260200191505060405180910390a150565b60026020528060005260406000206000915090505481565b600460009054906101000a900473ffffffffffffffffffffffffffffffffffffffff1673ffffffffffffffffffffffffffffffffffffffff163373ffffffffffffffffffffffffffffffffffffffff161415156104a657fe5b80600260008473ffffffffffffffffffffffffffffffffffffffff1673ffffffffffffffffffffffffffffffffffffffff168152602001908152602001600020819055505050565b600460009054906101000a900473ffffffffffffffffffffffffffffffffffffffff1673ffffffffffffffffffffffffffffffffffffffff163373ffffffffffffffffffffffffffffffffffffffff1614151561054757fe5b80600460006101000a81548173ffffffffffffffffffffffffffffffffffffffff021916908373ffffffffffffffffffffffffffffffffffffffff16021790555050565b600460009054906101000a900473ffffffffffffffffffffffffffffffffffffffff1673ffffffffffffffffffffffffffffffffffffffff163373ffffffffffffffffffffffffffffffffffffffff161415156105e457fe5b8060018190555050565b6000809054906101000a900473ffffffffffffffffffffffffffffffffffffffff1681565b6003602052816000526040600020602052806000526040600020600091509150505481565b600460009054906101000a900473ffffffffffffffffffffffffffffffffffffffff1673ffffffffffffffffffffffffffffffffffffffff163373ffffffffffffffffffffffffffffffffffffffff1614151561069157fe5b80600360008573ffffffffffffffffffffffffffffffffffffffff1673ffffffffffffffffffffffffffffffffffffffff16815260200190815260200160002060008473ffffffffffffffffffffffffffffffffffffffff1673ffffffffffffffffffffffffffffffffffffffff168152602001908152602001600020819055505050505600a165627a7a723058209f4233bda8c0348a68326ac7c160b2045ddcb01c325afa7b539462079f33b7270029",
  "source": "// Copyright (c) 2018 Company Inc.\n//\n// Licensed under the Apache License, Version 2.0 (the \"License\");\n// you may not use this file except in compliance with the License.\n// You may obtain a copy of the License at\n//\n//     http://www.apache.org/licenses/LICENSE-2.0\n//\n// Unless required by applicable law or agreed to in writing, software\n// distributed under the License is distributed on an \"AS IS\" BASIS,\n// WITHOUT WARRANTIES OR CONDITIONS OF ANY KIND, either express or implied.\n// See the License for the specific language governing permissions and\n// limitations under the License.\n\npragma solidity ^0.4.19;\n\n\nimport \"./tokens/Token.sol\";\nimport \"./tokens/TokenLogic.sol\";\n\n\ncontract OpenFundTokenLogic is TokenLogic {\n\n    function OpenFundTokenLogic(\n        address token_,\n        address tokenData_,\n        address rolesContract,\n        address[] initialWallets,\n        uint256[] initialBalances)\n        TokenLogic(token_, tokenData_, rolesContract) public\n    {\n        if (tokenData_ == address(0x0)) {\n            uint256 totalSupply;\n            require(initialBalances.length == initialWallets.length);\n            for (uint256 i = 0; i < initialWallets.length; i++) {\n                data.setBalances(initialWallets[i], initialBalances[i]);\n                token.triggerTransfer(address(0x0), initialWallets[i], initialBalances[i]);\n                totalSupply = Math.add(totalSupply, initialBalances[i]);\n            }\n            data.setSupply(totalSupply);\n        }\n    }\n\n    function mintFor(address, uint256) public tokenOnly {\n        // no more OpenFundTokens can be minted after the initial mint\n        assert(false);\n    }\n\n    function burn(address, uint256) public tokenOnly {\n        // burning is not possible\n        assert(false);\n    }\n}\n\n\ncontract OpenFundToken is Token {\n    function OpenFundToken(string name_, string symbol_, address rolesContract) public Token(name_, symbol_, rolesContract) {\n        // you shouldn't create logic here, because this contract would be the owner.\n    }\n\n}\n",
  "sourcePath": "/Users/mbenhajla/Documents/Blockchain_Projekte/Trecento/trecentoproject/contracts/OpenFundToken.sol",
  "compiler": {
    "name": "solc",
    "version": "0.4.19+commit.c4cbbb05.Emscripten.clang"
  },
  "schemaVersion": "1.0.1",
  "updatedAt": "2018-04-01T16:19:54.405Z"
}