{
  "contractName": "Roles",
  "abi": [
    {
      "constant": false,
      "inputs": [
        {
          "name": "owner_",
          "type": "address"
        }
      ],
      "name": "setOwner",
      "outputs": [],
      "payable": false,
      "stateMutability": "nonpayable",
      "type": "function"
    },
    {
      "constant": false,
      "inputs": [],
      "name": "restart",
      "outputs": [],
      "payable": false,
      "stateMutability": "nonpayable",
      "type": "function"
    },
    {
      "constant": false,
      "inputs": [
        {
          "name": "ctrct",
          "type": "bytes32"
        },
        {
          "name": "roleName",
          "type": "string"
        },
        {
          "name": "user",
          "type": "address"
        }
      ],
      "name": "grantUserRole",
      "outputs": [],
      "payable": false,
      "stateMutability": "nonpayable",
      "type": "function"
    },
    {
      "constant": true,
      "inputs": [
        {
          "name": "",
          "type": "bytes32"
        },
        {
          "name": "",
          "type": "bytes32"
        }
      ],
      "name": "knownRoleNames",
      "outputs": [
        {
          "name": "",
          "type": "bool"
        }
      ],
      "payable": false,
      "stateMutability": "view",
      "type": "function"
    },
    {
      "constant": true,
      "inputs": [],
      "name": "roles",
      "outputs": [
        {
          "name": "",
          "type": "address"
        }
      ],
      "payable": false,
      "stateMutability": "view",
      "type": "function"
    },
    {
      "constant": false,
      "inputs": [],
      "name": "emergencyStop",
      "outputs": [],
      "payable": false,
      "stateMutability": "nonpayable",
      "type": "function"
    },
    {
      "constant": false,
      "inputs": [
        {
          "name": "ctrct",
          "type": "bytes32"
        },
        {
          "name": "roleName",
          "type": "string"
        }
      ],
      "name": "addContractRole",
      "outputs": [],
      "payable": false,
      "stateMutability": "nonpayable",
      "type": "function"
    },
    {
      "constant": true,
      "inputs": [],
      "name": "stopped",
      "outputs": [
        {
          "name": "",
          "type": "bool"
        }
      ],
      "payable": false,
      "stateMutability": "view",
      "type": "function"
    },
    {
      "constant": true,
      "inputs": [
        {
          "name": "",
          "type": "bytes32"
        },
        {
          "name": "",
          "type": "bytes32"
        },
        {
          "name": "",
          "type": "address"
        }
      ],
      "name": "roleList",
      "outputs": [
        {
          "name": "",
          "type": "bool"
        }
      ],
      "payable": false,
      "stateMutability": "view",
      "type": "function"
    },
    {
      "constant": true,
      "inputs": [],
      "name": "owner",
      "outputs": [
        {
          "name": "",
          "type": "address"
        }
      ],
      "payable": false,
      "stateMutability": "view",
      "type": "function"
    },
    {
      "constant": false,
      "inputs": [
        {
          "name": "roles_",
          "type": "address"
        }
      ],
      "name": "setRolesContract",
      "outputs": [],
      "payable": false,
      "stateMutability": "nonpayable",
      "type": "function"
    },
    {
      "constant": false,
      "inputs": [
        {
          "name": "ctrct",
          "type": "bytes32"
        },
        {
          "name": "roleName",
          "type": "string"
        },
        {
          "name": "user",
          "type": "address"
        }
      ],
      "name": "revokeUserRole",
      "outputs": [],
      "payable": false,
      "stateMutability": "nonpayable",
      "type": "function"
    },
    {
      "constant": false,
      "inputs": [
        {
          "name": "ctrct",
          "type": "bytes32"
        },
        {
          "name": "roleName",
          "type": "string"
        }
      ],
      "name": "removeContractRole",
      "outputs": [],
      "payable": false,
      "stateMutability": "nonpayable",
      "type": "function"
    },
    {
      "inputs": [],
      "payable": false,
      "stateMutability": "nonpayable",
      "type": "constructor"
    },
    {
      "anonymous": false,
      "inputs": [
        {
          "indexed": false,
          "name": "newOwner",
          "type": "address"
        }
      ],
      "name": "LogSetOwner",
      "type": "event"
    },
    {
      "anonymous": false,
      "inputs": [
        {
          "indexed": false,
          "name": "contractHash",
          "type": "bytes32"
        },
        {
          "indexed": false,
          "name": "roleName",
          "type": "string"
        }
      ],
      "name": "LogRoleAdded",
      "type": "event"
    },
    {
      "anonymous": false,
      "inputs": [
        {
          "indexed": false,
          "name": "contractHash",
          "type": "bytes32"
        },
        {
          "indexed": false,
          "name": "roleName",
          "type": "string"
        }
      ],
      "name": "LogRoleRemoved",
      "type": "event"
    },
    {
      "anonymous": false,
      "inputs": [
        {
          "indexed": false,
          "name": "contractHash",
          "type": "bytes32"
        },
        {
          "indexed": false,
          "name": "roleName",
          "type": "string"
        },
        {
          "indexed": false,
          "name": "user",
          "type": "address"
        }
      ],
      "name": "LogRoleGranted",
      "type": "event"
    },
    {
      "anonymous": false,
      "inputs": [
        {
          "indexed": false,
          "name": "contractHash",
          "type": "bytes32"
        },
        {
          "indexed": false,
          "name": "roleName",
          "type": "string"
        },
        {
          "indexed": false,
          "name": "user",
          "type": "address"
        }
      ],
      "name": "LogRoleRevoked",
      "type": "event"
    },
    {
      "constant": true,
      "inputs": [
        {
          "name": "roleName",
          "type": "string"
        }
      ],
      "name": "hasRole",
      "outputs": [
        {
          "name": "",
          "type": "bool"
        }
      ],
      "payable": false,
      "stateMutability": "view",
      "type": "function"
    },
    {
      "constant": true,
      "inputs": [
        {
          "name": "roleName",
          "type": "string"
        }
      ],
      "name": "senderHasRole",
      "outputs": [
        {
          "name": "",
          "type": "bool"
        }
      ],
      "payable": false,
      "stateMutability": "view",
      "type": "function"
    },
    {
      "constant": true,
      "inputs": [],
      "name": "contractHash",
      "outputs": [
        {
          "name": "",
          "type": "bytes32"
        }
      ],
      "payable": false,
      "stateMutability": "view",
      "type": "function"
    }
  ],
  "bytecode": "0x60606040526000600360006101000a81548160ff021916908315150217905550341561002a57600080fd5b6040805190810160405280600f81526020017f526f6c65735265706f7369746f7279000000000000000000000000000000000081525030336000806101000a81548173ffffffffffffffffffffffffffffffffffffffff021916908373ffffffffffffffffffffffffffffffffffffffff160217905550816040518082805190602001908083835b6020831015156100d757805182526020820191506020810190506020830392506100b2565b6001836020036101000a03801982511681845116808217855250505050505090500191505060405180910390206002816000191690555080600160006101000a81548173ffffffffffffffffffffffffffffffffffffffff021916908373ffffffffffffffffffffffffffffffffffffffff1602179055505050611848806101606000396000f3006060604052600436106100e6576000357c0100000000000000000000000000000000000000000000000000000000900463ffffffff16806313af4035146100eb5780631ca03b8e146101245780631ef3755d146101995780632f677038146101ae5780633037cea314610237578063392f5f641461028357806363a599a4146102d8578063644443ed146102ed57806375f12b21146103575780638b51ca42146103845780638da5cb5b146103ef578063904c609414610444578063afa202ac14610475578063c2a48c70146104ae578063e3c33a9b14610537578063edd70a75146105ac575b600080fd5b34156100f657600080fd5b610122600480803573ffffffffffffffffffffffffffffffffffffffff16906020019091905050610616565b005b341561012f57600080fd5b61017f600480803590602001908201803590602001908080601f01602080910402602001604051908101604052809392919081815260200183838082843782019150505050505091905050610738565b604051808215151515815260200191505060405180910390f35b34156101a457600080fd5b6101ac6108b6565b005b34156101b957600080fd5b61023560048080356000191690602001909190803590602001908201803590602001908080601f0160208091040260200160405190810160405280939291908181526020018383808284378201915050505050509190803573ffffffffffffffffffffffffffffffffffffffff16906020019091905050610975565b005b341561024257600080fd5b61026960048080356000191690602001909190803560001916906020019091905050610c97565b604051808215151515815260200191505060405180910390f35b341561028e57600080fd5b610296610cc6565b604051808273ffffffffffffffffffffffffffffffffffffffff1673ffffffffffffffffffffffffffffffffffffffff16815260200191505060405180910390f35b34156102e357600080fd5b6102eb610cec565b005b34156102f857600080fd5b61035560048080356000191690602001909190803590602001908201803590602001908080601f01602080910402602001604051908101604052809392919081815260200183838082843782019150505050505091905050610dab565b005b341561036257600080fd5b61036a61105c565b604051808215151515815260200191505060405180910390f35b341561038f57600080fd5b6103d56004808035600019169060200190919080356000191690602001909190803573ffffffffffffffffffffffffffffffffffffffff1690602001909190505061106f565b604051808215151515815260200191505060405180910390f35b34156103fa57600080fd5b6104026110ab565b604051808273ffffffffffffffffffffffffffffffffffffffff1673ffffffffffffffffffffffffffffffffffffffff16815260200191505060405180910390f35b341561044f57600080fd5b6104576110d0565b60405180826000191660001916815260200191505060405180910390f35b341561048057600080fd5b6104ac600480803573ffffffffffffffffffffffffffffffffffffffff169060200190919050506110d6565b005b34156104b957600080fd5b61053560048080356000191690602001909190803590602001908201803590602001908080601f0160208091040260200160405190810160405280939291908181526020018383808284378201915050505050509190803573ffffffffffffffffffffffffffffffffffffffff169060200190919050506111d2565b005b341561054257600080fd5b610592600480803590602001908201803590602001908080601f0160208091040260200160405190810160405280939291908181526020018383808284378201915050505050509190505061143c565b604051808215151515815260200191505060405180910390f35b34156105b757600080fd5b61061460048080356000191690602001909190803590602001908201803590602001908080601f01602080910402602001604051908101604052809392919081815260200183838082843782019150505050505091905050611575565b005b6000809054906101000a900473ffffffffffffffffffffffffffffffffffffffff1673ffffffffffffffffffffffffffffffffffffffff163373ffffffffffffffffffffffffffffffffffffffff1614151561067157600080fd5b806000806101000a81548173ffffffffffffffffffffffffffffffffffffffff021916908373ffffffffffffffffffffffffffffffffffffffff1602179055507fce241d7ca1f669fee44b6fc00b8eba2df3bb514eed0f6f668f8f89096e81ed946000809054906101000a900473ffffffffffffffffffffffffffffffffffffffff16604051808273ffffffffffffffffffffffffffffffffffffffff1673ffffffffffffffffffffffffffffffffffffffff16815260200191505060405180910390a150565b60006107438261143c565b80156108af5750600160009054906101000a900473ffffffffffffffffffffffffffffffffffffffff1673ffffffffffffffffffffffffffffffffffffffff16638b51ca42600254846040518082805190602001908083835b6020831015156107c1578051825260208201915060208101905060208303925061079c565b6001836020036101000a0380198251168184511680821785525050505050509050019150506040518091039020336000604051602001526040518463ffffffff167c010000000000000000000000000000000000000000000000000000000002815260040180846000191660001916815260200183600019166000191681526020018273ffffffffffffffffffffffffffffffffffffffff1673ffffffffffffffffffffffffffffffffffffffff1681526020019350505050602060405180830381600087803b151561089357600080fd5b6102c65a03f115156108a457600080fd5b505050604051805190505b9050919050565b6040805190810160405280600981526020017f72657374617274657200000000000000000000000000000000000000000000008152506000809054906101000a900473ffffffffffffffffffffffffffffffffffffffff1673ffffffffffffffffffffffffffffffffffffffff163373ffffffffffffffffffffffffffffffffffffffff16148061094c575061094b81610738565b5b151561095757600080fd5b6000600360006101000a81548160ff02191690831515021790555050565b6040805190810160405280600581526020017f61646d696e0000000000000000000000000000000000000000000000000000008152506000809054906101000a900473ffffffffffffffffffffffffffffffffffffffff1673ffffffffffffffffffffffffffffffffffffffff163373ffffffffffffffffffffffffffffffffffffffff161480610a0b5750610a0a81610738565b5b1515610a1657600080fd5b6005600085600019166000191681526020019081526020016000206000846040518082805190602001908083835b602083101515610a695780518252602082019150602081019050602083039250610a44565b6001836020036101000a03801982511681845116808217855250505050505090500191505060405180910390206000191660001916815260200190815260200160002060009054906101000a900460ff161515610ac557600080fd5b60016004600086600019166000191681526020019081526020016000206000856040518082805190602001908083835b602083101515610b1a5780518252602082019150602081019050602083039250610af5565b6001836020036101000a03801982511681845116808217855250505050505090500191505060405180910390206000191660001916815260200190815260200160002060008473ffffffffffffffffffffffffffffffffffffffff1673ffffffffffffffffffffffffffffffffffffffff16815260200190815260200160002060006101000a81548160ff0219169083151502179055507f407d91ed2028325ba84bcf37bade3cde79c3dec599612fa155b042eba4786ddc848484604051808460001916600019168152602001806020018373ffffffffffffffffffffffffffffffffffffffff1673ffffffffffffffffffffffffffffffffffffffff168152602001828103825284818151815260200191508051906020019080838360005b83811015610c55578082015181840152602081019050610c3a565b50505050905090810190601f168015610c825780820380516001836020036101000a031916815260200191505b5094505050505060405180910390a150505050565b60056020528160005260406000206020528060005260406000206000915091509054906101000a900460ff1681565b600160009054906101000a900473ffffffffffffffffffffffffffffffffffffffff1681565b6040805190810160405280600781526020017f73746f70706572000000000000000000000000000000000000000000000000008152506000809054906101000a900473ffffffffffffffffffffffffffffffffffffffff1673ffffffffffffffffffffffffffffffffffffffff163373ffffffffffffffffffffffffffffffffffffffff161480610d825750610d8181610738565b5b1515610d8d57600080fd5b6001600360006101000a81548160ff02191690831515021790555050565b6040805190810160405280600581526020017f61646d696e0000000000000000000000000000000000000000000000000000008152506000809054906101000a900473ffffffffffffffffffffffffffffffffffffffff1673ffffffffffffffffffffffffffffffffffffffff163373ffffffffffffffffffffffffffffffffffffffff161480610e415750610e4081610738565b5b1515610e4c57600080fd5b6005600084600019166000191681526020019081526020016000206000836040518082805190602001908083835b602083101515610e9f5780518252602082019150602081019050602083039250610e7a565b6001836020036101000a03801982511681845116808217855250505050505090500191505060405180910390206000191660001916815260200190815260200160002060009054906101000a900460ff16151515610efc57600080fd5b60016005600085600019166000191681526020019081526020016000206000846040518082805190602001908083835b602083101515610f515780518252602082019150602081019050602083039250610f2c565b6001836020036101000a03801982511681845116808217855250505050505090500191505060405180910390206000191660001916815260200190815260200160002060006101000a81548160ff0219169083151502179055507f9e854cfefd293f12a3d57e50652dd623ba2880249fd212fa50f89c32a468c26d838360405180836000191660001916815260200180602001828103825283818151815260200191508051906020019080838360005b8381101561101c578082015181840152602081019050611001565b50505050905090810190601f1680156110495780820380516001836020036101000a031916815260200191505b50935050505060405180910390a1505050565b600360009054906101000a900460ff1681565b6004602052826000526040600020602052816000526040600020602052806000526040600020600092509250509054906101000a900460ff1681565b6000809054906101000a900473ffffffffffffffffffffffffffffffffffffffff1681565b60025481565b6000809054906101000a900473ffffffffffffffffffffffffffffffffffffffff1673ffffffffffffffffffffffffffffffffffffffff163373ffffffffffffffffffffffffffffffffffffffff1614151561113157600080fd5b600160009054906101000a900473ffffffffffffffffffffffffffffffffffffffff1673ffffffffffffffffffffffffffffffffffffffff163073ffffffffffffffffffffffffffffffffffffffff161415151561118e57600080fd5b80600160006101000a81548173ffffffffffffffffffffffffffffffffffffffff021916908373ffffffffffffffffffffffffffffffffffffffff16021790555050565b6040805190810160405280600581526020017f61646d696e0000000000000000000000000000000000000000000000000000008152506000809054906101000a900473ffffffffffffffffffffffffffffffffffffffff1673ffffffffffffffffffffffffffffffffffffffff163373ffffffffffffffffffffffffffffffffffffffff161480611268575061126781610738565b5b151561127357600080fd5b6004600085600019166000191681526020019081526020016000206000846040518082805190602001908083835b6020831015156112c657805182526020820191506020810190506020830392506112a1565b6001836020036101000a03801982511681845116808217855250505050505090500191505060405180910390206000191660001916815260200190815260200160002060008373ffffffffffffffffffffffffffffffffffffffff1673ffffffffffffffffffffffffffffffffffffffff16815260200190815260200160002060006101000a81549060ff02191690557f4fbccdb14b9a6cf4300c7a6ec5bf09d09677d23ac78f755e9249094d80cd6e27848484604051808460001916600019168152602001806020018373ffffffffffffffffffffffffffffffffffffffff1673ffffffffffffffffffffffffffffffffffffffff168152602001828103825284818151815260200191508051906020019080838360005b838110156113fa5780820151818401526020810190506113df565b50505050905090810190601f1680156114275780820380516001836020036101000a031916815260200191505b5094505050505060405180910390a150505050565b6000600160009054906101000a900473ffffffffffffffffffffffffffffffffffffffff1673ffffffffffffffffffffffffffffffffffffffff16633037cea3600254846040518082805190602001908083835b6020831015156114b55780518252602082019150602081019050602083039250611490565b6001836020036101000a03801982511681845116808217855250505050505090500191505060405180910390206000604051602001526040518363ffffffff167c0100000000000000000000000000000000000000000000000000000000028152600401808360001916600019168152602001826000191660001916815260200192505050602060405180830381600087803b151561155357600080fd5b6102c65a03f1151561156457600080fd5b505050604051805190509050919050565b6040805190810160405280600581526020017f61646d696e0000000000000000000000000000000000000000000000000000008152506000809054906101000a900473ffffffffffffffffffffffffffffffffffffffff1673ffffffffffffffffffffffffffffffffffffffff163373ffffffffffffffffffffffffffffffffffffffff16148061160b575061160a81610738565b5b151561161657600080fd5b6005600084600019166000191681526020019081526020016000206000836040518082805190602001908083835b6020831015156116695780518252602082019150602081019050602083039250611644565b6001836020036101000a03801982511681845116808217855250505050505090500191505060405180910390206000191660001916815260200190815260200160002060009054906101000a900460ff1615156116c557600080fd5b6005600084600019166000191681526020019081526020016000206000836040518082805190602001908083835b60208310151561171857805182526020820191506020810190506020830392506116f3565b6001836020036101000a03801982511681845116808217855250505050505090500191505060405180910390206000191660001916815260200190815260200160002060006101000a81549060ff02191690557f5c012fe87ecf5fc2e083217e8ce9c77a88d3dd15c311bd6725ebbb9421147902838360405180836000191660001916815260200180602001828103825283818151815260200191508051906020019080838360005b838110156117dc5780820151818401526020810190506117c1565b50505050905090810190601f1680156118095780820380516001836020036101000a031916815260200191505b50935050505060405180910390a15050505600a165627a7a7230582088c47585a0e171528f1d219fd1fb8c974beacc1a4074eb842224b6a7cb76a5850029",
  "source": "// Copyright (c) 2018 Company Inc.\n//\n// Licensed under the Apache License, Version 2.0 (the \"License\");\n// you may not use this file except in compliance with the License.\n// You may obtain a copy of the License at\n//\n//     http://www.apache.org/licenses/LICENSE-2.0\n//\n// Unless required by applicable law or agreed to in writing, software\n// distributed under the License is distributed on an \"AS IS\" BASIS,\n// WITHOUT WARRANTIES OR CONDITIONS OF ANY KIND, either express or implied.\n// See the License for the specific language governing permissions and\n// limitations under the License.\n\npragma solidity ^0.4.19;\n\nimport \"./Owned.sol\";\n\n\ninterface SecuredWithRolesI {\n    function hasRole(string roleName) public view returns (bool);\n    function senderHasRole(string roleName) public view returns (bool);\n    function contractHash() public view returns (bytes32);\n}\n\n\ncontract SecuredWithRoles is Owned {\n    RolesI public roles;\n    bytes32 public contractHash;\n    bool public stopped = false;\n\n    function SecuredWithRoles(string contractName_, address roles_) public {\n        contractHash = keccak256(contractName_);\n        roles = RolesI(roles_);\n    }\n\n    modifier stoppable() {\n        require(!stopped);\n        _;\n    }\n\n    modifier onlyRole(string role) {\n        require(senderHasRole(role));\n        _;\n    }\n\n    modifier roleOrOwner(string role) {\n        require(msg.sender == owner || senderHasRole(role));\n        _;\n    }\n\n    // returns true if the role has been defined for the contract\n    function hasRole(string roleName) public view returns (bool) {\n        return roles.knownRoleNames(contractHash, keccak256(roleName));\n    }\n\n    function senderHasRole(string roleName) public view returns (bool) {\n        return hasRole(roleName) && roles.roleList(contractHash, keccak256(roleName), msg.sender);\n    }\n\n    function emergencyStop() public roleOrOwner(\"stopper\") {\n        stopped = true;\n    }\n\n    function restart() public roleOrOwner(\"restarter\") {\n        stopped = false;\n    }\n\n    function setRolesContract(address roles_) public onlyOwner {\n        // it must not be possible to change the roles contract on the roles contract itself\n        require(this != address(roles));\n        roles = RolesI(roles_);\n    }\n\n}\n\n\ninterface RolesI {\n    function knownRoleNames(bytes32 contractHash, bytes32 nameHash) public view returns (bool);\n    function roleList(bytes32 contractHash, bytes32 nameHash, address member) public view returns (bool);\n\n    function addContractRole(bytes32 ctrct, string roleName) public;\n    function removeContractRole(bytes32 ctrct, string roleName) public;\n    function grantUserRole(bytes32 ctrct, string roleName, address user) public;\n    function revokeUserRole(bytes32 ctrct, string roleName, address user) public;\n}\n\n\ncontract RolesEvents {\n    event LogRoleAdded(bytes32 contractHash, string roleName);\n    event LogRoleRemoved(bytes32 contractHash, string roleName);\n    event LogRoleGranted(bytes32 contractHash, string roleName, address user);\n    event LogRoleRevoked(bytes32 contractHash, string roleName, address user);\n}\n\n\ncontract Roles is RolesEvents, SecuredWithRoles {\n    // mapping is contract -> role -> sender_address -> boolean\n    mapping(bytes32 => mapping (bytes32 => mapping (address => bool))) public roleList;\n    // the intention is\n    mapping (bytes32 => mapping (bytes32 => bool)) public knownRoleNames;\n\n    function Roles() SecuredWithRoles(\"RolesRepository\", this) public {}\n\n    function addContractRole(bytes32 ctrct, string roleName) public roleOrOwner(\"admin\") {\n        require(!knownRoleNames[ctrct][keccak256(roleName)]);\n        knownRoleNames[ctrct][keccak256(roleName)] = true;\n        LogRoleAdded(ctrct, roleName);\n    }\n\n    function removeContractRole(bytes32 ctrct, string roleName) public roleOrOwner(\"admin\") {\n        require(knownRoleNames[ctrct][keccak256(roleName)]);\n        delete knownRoleNames[ctrct][keccak256(roleName)];\n        LogRoleRemoved(ctrct, roleName);\n    }\n\n    function grantUserRole(bytes32 ctrct, string roleName, address user) public roleOrOwner(\"admin\") {\n        require(knownRoleNames[ctrct][keccak256(roleName)]);\n        roleList[ctrct][keccak256(roleName)][user] = true;\n        LogRoleGranted(ctrct, roleName, user);\n    }\n\n    function revokeUserRole(bytes32 ctrct, string roleName, address user) public roleOrOwner(\"admin\") {\n        delete roleList[ctrct][keccak256(roleName)][user];\n        LogRoleRevoked(ctrct, roleName, user);\n    }\n\n}\n",
  "sourcePath": "/Users/mbenhajla/Documents/TrecentoProject/fund-smart-contract/contracts/authority/Roles.sol",
  "compiler": {
    "name": "solc",
    "version": "0.4.19+commit.c4cbbb05.Emscripten.clang"
  },
  "schemaVersion": "1.0.1",
  "updatedAt": "2018-04-19T11:32:50.772Z"
}