{
  "contractName": "Roles",
  "abi": [
    {
      "constant": false,
      "inputs": [
        {
          "name": "owner_",
          "type": "address"
        }
      ],
      "name": "setOwner",
      "outputs": [],
      "payable": false,
      "stateMutability": "nonpayable",
      "type": "function"
    },
    {
      "constant": true,
      "inputs": [
        {
          "name": "roleName",
          "type": "string"
        }
      ],
      "name": "senderHasRole",
      "outputs": [
        {
          "name": "",
          "type": "bool"
        }
      ],
      "payable": false,
      "stateMutability": "view",
      "type": "function"
    },
    {
      "constant": false,
      "inputs": [],
      "name": "restart",
      "outputs": [],
      "payable": false,
      "stateMutability": "nonpayable",
      "type": "function"
    },
    {
      "constant": true,
      "inputs": [
        {
          "name": "",
          "type": "bytes32"
        },
        {
          "name": "",
          "type": "bytes32"
        }
      ],
      "name": "knownRoleNames",
      "outputs": [
        {
          "name": "",
          "type": "bool"
        }
      ],
      "payable": false,
      "stateMutability": "view",
      "type": "function"
    },
    {
      "constant": true,
      "inputs": [],
      "name": "roles",
      "outputs": [
        {
          "name": "",
          "type": "address"
        }
      ],
      "payable": false,
      "stateMutability": "view",
      "type": "function"
    },
    {
      "constant": false,
      "inputs": [],
      "name": "emergencyStop",
      "outputs": [],
      "payable": false,
      "stateMutability": "nonpayable",
      "type": "function"
    },
    {
      "constant": true,
      "inputs": [],
      "name": "stopped",
      "outputs": [
        {
          "name": "",
          "type": "bool"
        }
      ],
      "payable": false,
      "stateMutability": "view",
      "type": "function"
    },
    {
      "constant": true,
      "inputs": [
        {
          "name": "",
          "type": "bytes32"
        },
        {
          "name": "",
          "type": "bytes32"
        },
        {
          "name": "",
          "type": "address"
        }
      ],
      "name": "roleList",
      "outputs": [
        {
          "name": "",
          "type": "bool"
        }
      ],
      "payable": false,
      "stateMutability": "view",
      "type": "function"
    },
    {
      "constant": true,
      "inputs": [],
      "name": "owner",
      "outputs": [
        {
          "name": "",
          "type": "address"
        }
      ],
      "payable": false,
      "stateMutability": "view",
      "type": "function"
    },
    {
      "constant": true,
      "inputs": [],
      "name": "contractHash",
      "outputs": [
        {
          "name": "",
          "type": "bytes32"
        }
      ],
      "payable": false,
      "stateMutability": "view",
      "type": "function"
    },
    {
      "constant": false,
      "inputs": [
        {
          "name": "roles_",
          "type": "address"
        }
      ],
      "name": "setRolesContract",
      "outputs": [],
      "payable": false,
      "stateMutability": "nonpayable",
      "type": "function"
    },
    {
      "constant": true,
      "inputs": [
        {
          "name": "roleName",
          "type": "string"
        }
      ],
      "name": "hasRole",
      "outputs": [
        {
          "name": "",
          "type": "bool"
        }
      ],
      "payable": false,
      "stateMutability": "view",
      "type": "function"
    },
    {
      "inputs": [],
      "payable": false,
      "stateMutability": "nonpayable",
      "type": "constructor"
    },
    {
      "anonymous": false,
      "inputs": [
        {
          "indexed": false,
          "name": "newOwner",
          "type": "address"
        }
      ],
      "name": "LogSetOwner",
      "type": "event"
    },
    {
      "anonymous": false,
      "inputs": [
        {
          "indexed": false,
          "name": "contractHash",
          "type": "bytes32"
        },
        {
          "indexed": false,
          "name": "roleName",
          "type": "string"
        }
      ],
      "name": "LogRoleAdded",
      "type": "event"
    },
    {
      "anonymous": false,
      "inputs": [
        {
          "indexed": false,
          "name": "contractHash",
          "type": "bytes32"
        },
        {
          "indexed": false,
          "name": "roleName",
          "type": "string"
        }
      ],
      "name": "LogRoleRemoved",
      "type": "event"
    },
    {
      "anonymous": false,
      "inputs": [
        {
          "indexed": false,
          "name": "contractHash",
          "type": "bytes32"
        },
        {
          "indexed": false,
          "name": "roleName",
          "type": "string"
        },
        {
          "indexed": false,
          "name": "user",
          "type": "address"
        }
      ],
      "name": "LogRoleGranted",
      "type": "event"
    },
    {
      "anonymous": false,
      "inputs": [
        {
          "indexed": false,
          "name": "contractHash",
          "type": "bytes32"
        },
        {
          "indexed": false,
          "name": "roleName",
          "type": "string"
        },
        {
          "indexed": false,
          "name": "user",
          "type": "address"
        }
      ],
      "name": "LogRoleRevoked",
      "type": "event"
    },
    {
      "constant": false,
      "inputs": [
        {
          "name": "ctrct",
          "type": "bytes32"
        },
        {
          "name": "roleName",
          "type": "string"
        }
      ],
      "name": "addContractRole",
      "outputs": [],
      "payable": false,
      "stateMutability": "nonpayable",
      "type": "function"
    },
    {
      "constant": false,
      "inputs": [
        {
          "name": "ctrct",
          "type": "bytes32"
        },
        {
          "name": "roleName",
          "type": "string"
        }
      ],
      "name": "removeContractRole",
      "outputs": [],
      "payable": false,
      "stateMutability": "nonpayable",
      "type": "function"
    },
    {
      "constant": false,
      "inputs": [
        {
          "name": "ctrct",
          "type": "bytes32"
        },
        {
          "name": "roleName",
          "type": "string"
        },
        {
          "name": "user",
          "type": "address"
        }
      ],
      "name": "grantUserRole",
      "outputs": [],
      "payable": false,
      "stateMutability": "nonpayable",
      "type": "function"
    },
    {
      "constant": false,
      "inputs": [
        {
          "name": "ctrct",
          "type": "bytes32"
        },
        {
          "name": "roleName",
          "type": "string"
        },
        {
          "name": "user",
          "type": "address"
        }
      ],
      "name": "revokeUserRole",
      "outputs": [],
      "payable": false,
      "stateMutability": "nonpayable",
      "type": "function"
    }
  ],
  "bytecode": "0x60806040526000600360006101000a81548160ff02191690831515021790555034801561002b57600080fd5b506040805190810160405280600f81526020017f526f6c65735265706f7369746f7279000000000000000000000000000000000081525030336000806101000a81548173ffffffffffffffffffffffffffffffffffffffff021916908373ffffffffffffffffffffffffffffffffffffffff160217905550816040518082805190602001908083835b6020831015156100d957805182526020820191506020810190506020830392506100b4565b6001836020036101000a03801982511681845116808217855250505050505090500191505060405180910390206002816000191690555080600160006101000a81548173ffffffffffffffffffffffffffffffffffffffff021916908373ffffffffffffffffffffffffffffffffffffffff16021790555050506118fd806101626000396000f3006080604052600436106100e6576000357c0100000000000000000000000000000000000000000000000000000000900463ffffffff16806313af4035146100eb5780631ca03b8e1461012e5780631ef3755d146101af5780632f677038146101c65780633037cea31461025d578063392f5f64146102b457806363a599a41461030b578063644443ed1461032257806375f12b21146103995780638b51ca42146103c85780638da5cb5b1461043f578063904c609414610496578063afa202ac146104c9578063c2a48c701461050c578063e3c33a9b146105a3578063edd70a7514610624575b600080fd5b3480156100f757600080fd5b5061012c600480360381019080803573ffffffffffffffffffffffffffffffffffffffff16906020019092919050505061069b565b005b34801561013a57600080fd5b50610195600480360381019080803590602001908201803590602001908080601f01602080910402602001604051908101604052809392919081815260200183838082843782019150505050505091929192905050506107bd565b604051808215151515815260200191505060405180910390f35b3480156101bb57600080fd5b506101c4610953565b005b3480156101d257600080fd5b5061025b6004803603810190808035600019169060200190929190803590602001908201803590602001908080601f0160208091040260200160405190810160405280939291908181526020018383808284378201915050505050509192919290803573ffffffffffffffffffffffffffffffffffffffff169060200190929190505050610a12565b005b34801561026957600080fd5b5061029a60048036038101908080356000191690602001909291908035600019169060200190929190505050610d34565b604051808215151515815260200191505060405180910390f35b3480156102c057600080fd5b506102c9610d63565b604051808273ffffffffffffffffffffffffffffffffffffffff1673ffffffffffffffffffffffffffffffffffffffff16815260200191505060405180910390f35b34801561031757600080fd5b50610320610d89565b005b34801561032e57600080fd5b506103976004803603810190808035600019169060200190929190803590602001908201803590602001908080601f0160208091040260200160405190810160405280939291908181526020018383808284378201915050505050509192919290505050610e48565b005b3480156103a557600080fd5b506103ae6110f9565b604051808215151515815260200191505060405180910390f35b3480156103d457600080fd5b5061042560048036038101908080356000191690602001909291908035600019169060200190929190803573ffffffffffffffffffffffffffffffffffffffff16906020019092919050505061110c565b604051808215151515815260200191505060405180910390f35b34801561044b57600080fd5b50610454611148565b604051808273ffffffffffffffffffffffffffffffffffffffff1673ffffffffffffffffffffffffffffffffffffffff16815260200191505060405180910390f35b3480156104a257600080fd5b506104ab61116d565b60405180826000191660001916815260200191505060405180910390f35b3480156104d557600080fd5b5061050a600480360381019080803573ffffffffffffffffffffffffffffffffffffffff169060200190929190505050611173565b005b34801561051857600080fd5b506105a16004803603810190808035600019169060200190929190803590602001908201803590602001908080601f0160208091040260200160405190810160405280939291908181526020018383808284378201915050505050509192919290803573ffffffffffffffffffffffffffffffffffffffff16906020019092919050505061126f565b005b3480156105af57600080fd5b5061060a600480360381019080803590602001908201803590602001908080601f01602080910402602001604051908101604052809392919081815260200183838082843782019150505050505091929192905050506114d9565b604051808215151515815260200191505060405180910390f35b34801561063057600080fd5b506106996004803603810190808035600019169060200190929190803590602001908201803590602001908080601f016020809104026020016040519081016040528093929190818152602001838380828437820191505050505050919291929050505061162a565b005b6000809054906101000a900473ffffffffffffffffffffffffffffffffffffffff1673ffffffffffffffffffffffffffffffffffffffff163373ffffffffffffffffffffffffffffffffffffffff161415156106f657600080fd5b806000806101000a81548173ffffffffffffffffffffffffffffffffffffffff021916908373ffffffffffffffffffffffffffffffffffffffff1602179055507fce241d7ca1f669fee44b6fc00b8eba2df3bb514eed0f6f668f8f89096e81ed946000809054906101000a900473ffffffffffffffffffffffffffffffffffffffff16604051808273ffffffffffffffffffffffffffffffffffffffff1673ffffffffffffffffffffffffffffffffffffffff16815260200191505060405180910390a150565b60006107c8826114d9565b801561094c5750600160009054906101000a900473ffffffffffffffffffffffffffffffffffffffff1673ffffffffffffffffffffffffffffffffffffffff16638b51ca42600254846040518082805190602001908083835b6020831015156108465780518252602082019150602081019050602083039250610821565b6001836020036101000a0380198251168184511680821785525050505050509050019150506040518091039020336040518463ffffffff167c010000000000000000000000000000000000000000000000000000000002815260040180846000191660001916815260200183600019166000191681526020018273ffffffffffffffffffffffffffffffffffffffff1673ffffffffffffffffffffffffffffffffffffffff1681526020019350505050602060405180830381600087803b15801561091057600080fd5b505af1158015610924573d6000803e3d6000fd5b505050506040513d602081101561093a57600080fd5b81019080805190602001909291905050505b9050919050565b6040805190810160405280600981526020017f72657374617274657200000000000000000000000000000000000000000000008152506000809054906101000a900473ffffffffffffffffffffffffffffffffffffffff1673ffffffffffffffffffffffffffffffffffffffff163373ffffffffffffffffffffffffffffffffffffffff1614806109e957506109e8816107bd565b5b15156109f457600080fd5b6000600360006101000a81548160ff02191690831515021790555050565b6040805190810160405280600581526020017f61646d696e0000000000000000000000000000000000000000000000000000008152506000809054906101000a900473ffffffffffffffffffffffffffffffffffffffff1673ffffffffffffffffffffffffffffffffffffffff163373ffffffffffffffffffffffffffffffffffffffff161480610aa85750610aa7816107bd565b5b1515610ab357600080fd5b6005600085600019166000191681526020019081526020016000206000846040518082805190602001908083835b602083101515610b065780518252602082019150602081019050602083039250610ae1565b6001836020036101000a03801982511681845116808217855250505050505090500191505060405180910390206000191660001916815260200190815260200160002060009054906101000a900460ff161515610b6257600080fd5b60016004600086600019166000191681526020019081526020016000206000856040518082805190602001908083835b602083101515610bb75780518252602082019150602081019050602083039250610b92565b6001836020036101000a03801982511681845116808217855250505050505090500191505060405180910390206000191660001916815260200190815260200160002060008473ffffffffffffffffffffffffffffffffffffffff1673ffffffffffffffffffffffffffffffffffffffff16815260200190815260200160002060006101000a81548160ff0219169083151502179055507f407d91ed2028325ba84bcf37bade3cde79c3dec599612fa155b042eba4786ddc848484604051808460001916600019168152602001806020018373ffffffffffffffffffffffffffffffffffffffff1673ffffffffffffffffffffffffffffffffffffffff168152602001828103825284818151815260200191508051906020019080838360005b83811015610cf2578082015181840152602081019050610cd7565b50505050905090810190601f168015610d1f5780820380516001836020036101000a031916815260200191505b5094505050505060405180910390a150505050565b60056020528160005260406000206020528060005260406000206000915091509054906101000a900460ff1681565b600160009054906101000a900473ffffffffffffffffffffffffffffffffffffffff1681565b6040805190810160405280600781526020017f73746f70706572000000000000000000000000000000000000000000000000008152506000809054906101000a900473ffffffffffffffffffffffffffffffffffffffff1673ffffffffffffffffffffffffffffffffffffffff163373ffffffffffffffffffffffffffffffffffffffff161480610e1f5750610e1e816107bd565b5b1515610e2a57600080fd5b6001600360006101000a81548160ff02191690831515021790555050565b6040805190810160405280600581526020017f61646d696e0000000000000000000000000000000000000000000000000000008152506000809054906101000a900473ffffffffffffffffffffffffffffffffffffffff1673ffffffffffffffffffffffffffffffffffffffff163373ffffffffffffffffffffffffffffffffffffffff161480610ede5750610edd816107bd565b5b1515610ee957600080fd5b6005600084600019166000191681526020019081526020016000206000836040518082805190602001908083835b602083101515610f3c5780518252602082019150602081019050602083039250610f17565b6001836020036101000a03801982511681845116808217855250505050505090500191505060405180910390206000191660001916815260200190815260200160002060009054906101000a900460ff16151515610f9957600080fd5b60016005600085600019166000191681526020019081526020016000206000846040518082805190602001908083835b602083101515610fee5780518252602082019150602081019050602083039250610fc9565b6001836020036101000a03801982511681845116808217855250505050505090500191505060405180910390206000191660001916815260200190815260200160002060006101000a81548160ff0219169083151502179055507f9e854cfefd293f12a3d57e50652dd623ba2880249fd212fa50f89c32a468c26d838360405180836000191660001916815260200180602001828103825283818151815260200191508051906020019080838360005b838110156110b957808201518184015260208101905061109e565b50505050905090810190601f1680156110e65780820380516001836020036101000a031916815260200191505b50935050505060405180910390a1505050565b600360009054906101000a900460ff1681565b6004602052826000526040600020602052816000526040600020602052806000526040600020600092509250509054906101000a900460ff1681565b6000809054906101000a900473ffffffffffffffffffffffffffffffffffffffff1681565b60025481565b6000809054906101000a900473ffffffffffffffffffffffffffffffffffffffff1673ffffffffffffffffffffffffffffffffffffffff163373ffffffffffffffffffffffffffffffffffffffff161415156111ce57600080fd5b600160009054906101000a900473ffffffffffffffffffffffffffffffffffffffff1673ffffffffffffffffffffffffffffffffffffffff163073ffffffffffffffffffffffffffffffffffffffff161415151561122b57600080fd5b80600160006101000a81548173ffffffffffffffffffffffffffffffffffffffff021916908373ffffffffffffffffffffffffffffffffffffffff16021790555050565b6040805190810160405280600581526020017f61646d696e0000000000000000000000000000000000000000000000000000008152506000809054906101000a900473ffffffffffffffffffffffffffffffffffffffff1673ffffffffffffffffffffffffffffffffffffffff163373ffffffffffffffffffffffffffffffffffffffff1614806113055750611304816107bd565b5b151561131057600080fd5b6004600085600019166000191681526020019081526020016000206000846040518082805190602001908083835b602083101515611363578051825260208201915060208101905060208303925061133e565b6001836020036101000a03801982511681845116808217855250505050505090500191505060405180910390206000191660001916815260200190815260200160002060008373ffffffffffffffffffffffffffffffffffffffff1673ffffffffffffffffffffffffffffffffffffffff16815260200190815260200160002060006101000a81549060ff02191690557f4fbccdb14b9a6cf4300c7a6ec5bf09d09677d23ac78f755e9249094d80cd6e27848484604051808460001916600019168152602001806020018373ffffffffffffffffffffffffffffffffffffffff1673ffffffffffffffffffffffffffffffffffffffff168152602001828103825284818151815260200191508051906020019080838360005b8381101561149757808201518184015260208101905061147c565b50505050905090810190601f1680156114c45780820380516001836020036101000a031916815260200191505b5094505050505060405180910390a150505050565b6000600160009054906101000a900473ffffffffffffffffffffffffffffffffffffffff1673ffffffffffffffffffffffffffffffffffffffff16633037cea3600254846040518082805190602001908083835b602083101515611552578051825260208201915060208101905060208303925061152d565b6001836020036101000a03801982511681845116808217855250505050505090500191505060405180910390206040518363ffffffff167c0100000000000000000000000000000000000000000000000000000000028152600401808360001916600019168152602001826000191660001916815260200192505050602060405180830381600087803b1580156115e857600080fd5b505af11580156115fc573d6000803e3d6000fd5b505050506040513d602081101561161257600080fd5b81019080805190602001909291905050509050919050565b6040805190810160405280600581526020017f61646d696e0000000000000000000000000000000000000000000000000000008152506000809054906101000a900473ffffffffffffffffffffffffffffffffffffffff1673ffffffffffffffffffffffffffffffffffffffff163373ffffffffffffffffffffffffffffffffffffffff1614806116c057506116bf816107bd565b5b15156116cb57600080fd5b6005600084600019166000191681526020019081526020016000206000836040518082805190602001908083835b60208310151561171e57805182526020820191506020810190506020830392506116f9565b6001836020036101000a03801982511681845116808217855250505050505090500191505060405180910390206000191660001916815260200190815260200160002060009054906101000a900460ff16151561177a57600080fd5b6005600084600019166000191681526020019081526020016000206000836040518082805190602001908083835b6020831015156117cd57805182526020820191506020810190506020830392506117a8565b6001836020036101000a03801982511681845116808217855250505050505090500191505060405180910390206000191660001916815260200190815260200160002060006101000a81549060ff02191690557f5c012fe87ecf5fc2e083217e8ce9c77a88d3dd15c311bd6725ebbb9421147902838360405180836000191660001916815260200180602001828103825283818151815260200191508051906020019080838360005b83811015611891578082015181840152602081019050611876565b50505050905090810190601f1680156118be5780820380516001836020036101000a031916815260200191505b50935050505060405180910390a15050505600a165627a7a723058206d885a982f27007575293b6c8bb574b6aeb5b8f3381c37bb7f8a9a0b2d5b39410029",
  "source": "// Copyright (c) 2018 Company Inc.\n//\n// Licensed under the Apache License, Version 2.0 (the \"License\");\n// you may not use this file except in compliance with the License.\n// You may obtain a copy of the License at\n//\n//     http://www.apache.org/licenses/LICENSE-2.0\n//\n// Unless required by applicable law or agreed to in writing, software\n// distributed under the License is distributed on an \"AS IS\" BASIS,\n// WITHOUT WARRANTIES OR CONDITIONS OF ANY KIND, either express or implied.\n// See the License for the specific language governing permissions and\n// limitations under the License.\n\npragma solidity ^0.4.23;\n\nimport \"./Owned.sol\";\n\n\ninterface SecuredWithRolesI {\n    function hasRole(string roleName) external view returns (bool);\n    function senderHasRole(string roleName) external view returns (bool);\n    function contractHash() external view returns (bytes32);\n}\n\n\ncontract SecuredWithRoles is Owned {\n    RolesI public roles;\n    bytes32 public contractHash;\n    bool public stopped = false;\n\n    constructor (string contractName_, address roles_) public {\n        contractHash = keccak256(contractName_);\n        roles = RolesI(roles_);\n    }\n\n    modifier stoppable() {\n        require(!stopped);\n        _;\n    }\n\n    modifier onlyRole(string role) {\n        require(senderHasRole(role));\n        _;\n    }\n\n    modifier roleOrOwner(string role) {\n        require(msg.sender == owner || senderHasRole(role));\n        _;\n    }\n\n    // returns true if the role has been defined for the contract\n    function hasRole(string roleName) public view returns (bool) {\n        return roles.knownRoleNames(contractHash, keccak256(roleName));\n    }\n\n    function senderHasRole(string roleName) public view returns (bool) {\n        return hasRole(roleName) && roles.roleList(contractHash, keccak256(roleName), msg.sender);\n    }\n\n    function emergencyStop() public roleOrOwner(\"stopper\") {\n        stopped = true;\n    }\n\n    function restart() public roleOrOwner(\"restarter\") {\n        stopped = false;\n    }\n\n    function setRolesContract(address roles_) public onlyOwner {\n        // it must not be possible to change the roles contract on the roles contract itself\n        require(this != address(roles));\n        roles = RolesI(roles_);\n    }\n\n}\n\n\ninterface RolesI {\n    function knownRoleNames(bytes32 contractHash, bytes32 nameHash) external view returns (bool);\n    function roleList(bytes32 contractHash, bytes32 nameHash, address member) external view returns (bool);\n\n    function addContractRole(bytes32 ctrct, string roleName) external;\n    function removeContractRole(bytes32 ctrct, string roleName) external;\n    function grantUserRole(bytes32 ctrct, string roleName, address user) external;\n    function revokeUserRole(bytes32 ctrct, string roleName, address user) external;\n}\n\n\ncontract RolesEvents {\n    event LogRoleAdded(bytes32 contractHash, string roleName);\n    event LogRoleRemoved(bytes32 contractHash, string roleName);\n    event LogRoleGranted(bytes32 contractHash, string roleName, address user);\n    event LogRoleRevoked(bytes32 contractHash, string roleName, address user);\n}\n\n\ncontract Roles is RolesEvents, SecuredWithRoles {\n    // mapping is contract -> role -> sender_address -> boolean\n    mapping(bytes32 => mapping (bytes32 => mapping (address => bool))) public roleList;\n    // the intention is\n    mapping (bytes32 => mapping (bytes32 => bool)) public knownRoleNames;\n\n    constructor () SecuredWithRoles(\"RolesRepository\", this) public {}\n\n    function addContractRole(bytes32 ctrct, string roleName) public roleOrOwner(\"admin\") {\n        require(!knownRoleNames[ctrct][keccak256(roleName)]);\n        knownRoleNames[ctrct][keccak256(roleName)] = true;\n        emit LogRoleAdded(ctrct, roleName);\n    }\n\n    function removeContractRole(bytes32 ctrct, string roleName) public roleOrOwner(\"admin\") {\n        require(knownRoleNames[ctrct][keccak256(roleName)]);\n        delete knownRoleNames[ctrct][keccak256(roleName)];\n        emit LogRoleRemoved(ctrct, roleName);\n    }\n\n    function grantUserRole(bytes32 ctrct, string roleName, address user) public roleOrOwner(\"admin\") {\n        require(knownRoleNames[ctrct][keccak256(roleName)]);\n        roleList[ctrct][keccak256(roleName)][user] = true;\n        emit LogRoleGranted(ctrct, roleName, user);\n    }\n\n    function revokeUserRole(bytes32 ctrct, string roleName, address user) public roleOrOwner(\"admin\") {\n        delete roleList[ctrct][keccak256(roleName)][user];\n        emit LogRoleRevoked(ctrct, roleName, user);\n    }\n\n}\n",
  "sourcePath": "/Users/mbenhajla/Documents/TrecentoProject/fund-smart-contract/contracts/authority/Roles.sol",
  "compiler": {
    "name": "solc",
    "version": "0.4.23+commit.124ca40d.Emscripten.clang"
  },
  "schemaVersion": "2.0.0",
  "updatedAt": "2018-06-07T14:07:40.625Z"
}