{
  "contractName": "Token",
  "abi": [
    {
      "constant": true,
      "inputs": [],
      "name": "name",
      "outputs": [
        {
          "name": "",
          "type": "string"
        }
      ],
      "payable": false,
      "stateMutability": "view",
      "type": "function"
    },
    {
      "constant": false,
      "inputs": [
        {
          "name": "owner_",
          "type": "address"
        }
      ],
      "name": "setOwner",
      "outputs": [],
      "payable": false,
      "stateMutability": "nonpayable",
      "type": "function"
    },
    {
      "constant": true,
      "inputs": [
        {
          "name": "roleName",
          "type": "string"
        }
      ],
      "name": "senderHasRole",
      "outputs": [
        {
          "name": "",
          "type": "bool"
        }
      ],
      "payable": false,
      "stateMutability": "view",
      "type": "function"
    },
    {
      "constant": false,
      "inputs": [],
      "name": "restart",
      "outputs": [],
      "payable": false,
      "stateMutability": "nonpayable",
      "type": "function"
    },
    {
      "constant": true,
      "inputs": [],
      "name": "decimals",
      "outputs": [
        {
          "name": "",
          "type": "uint8"
        }
      ],
      "payable": false,
      "stateMutability": "view",
      "type": "function"
    },
    {
      "constant": true,
      "inputs": [],
      "name": "roles",
      "outputs": [
        {
          "name": "",
          "type": "address"
        }
      ],
      "payable": false,
      "stateMutability": "view",
      "type": "function"
    },
    {
      "constant": false,
      "inputs": [],
      "name": "emergencyStop",
      "outputs": [],
      "payable": false,
      "stateMutability": "nonpayable",
      "type": "function"
    },
    {
      "constant": false,
      "inputs": [
        {
          "name": "logic_",
          "type": "address"
        }
      ],
      "name": "setLogic",
      "outputs": [],
      "payable": false,
      "stateMutability": "nonpayable",
      "type": "function"
    },
    {
      "constant": true,
      "inputs": [],
      "name": "stopped",
      "outputs": [
        {
          "name": "",
          "type": "bool"
        }
      ],
      "payable": false,
      "stateMutability": "view",
      "type": "function"
    },
    {
      "constant": true,
      "inputs": [],
      "name": "owner",
      "outputs": [
        {
          "name": "",
          "type": "address"
        }
      ],
      "payable": false,
      "stateMutability": "view",
      "type": "function"
    },
    {
      "constant": true,
      "inputs": [],
      "name": "contractHash",
      "outputs": [
        {
          "name": "",
          "type": "bytes32"
        }
      ],
      "payable": false,
      "stateMutability": "view",
      "type": "function"
    },
    {
      "constant": true,
      "inputs": [],
      "name": "symbol",
      "outputs": [
        {
          "name": "",
          "type": "string"
        }
      ],
      "payable": false,
      "stateMutability": "view",
      "type": "function"
    },
    {
      "constant": false,
      "inputs": [
        {
          "name": "roles_",
          "type": "address"
        }
      ],
      "name": "setRolesContract",
      "outputs": [],
      "payable": false,
      "stateMutability": "nonpayable",
      "type": "function"
    },
    {
      "constant": false,
      "inputs": [
        {
          "name": "name_",
          "type": "string"
        }
      ],
      "name": "setName",
      "outputs": [],
      "payable": false,
      "stateMutability": "nonpayable",
      "type": "function"
    },
    {
      "constant": true,
      "inputs": [],
      "name": "logic",
      "outputs": [
        {
          "name": "",
          "type": "address"
        }
      ],
      "payable": false,
      "stateMutability": "view",
      "type": "function"
    },
    {
      "constant": true,
      "inputs": [
        {
          "name": "roleName",
          "type": "string"
        }
      ],
      "name": "hasRole",
      "outputs": [
        {
          "name": "",
          "type": "bool"
        }
      ],
      "payable": false,
      "stateMutability": "view",
      "type": "function"
    },
    {
      "constant": false,
      "inputs": [
        {
          "name": "src",
          "type": "address"
        },
        {
          "name": "wad",
          "type": "uint256"
        }
      ],
      "name": "pull",
      "outputs": [
        {
          "name": "",
          "type": "bool"
        }
      ],
      "payable": false,
      "stateMutability": "nonpayable",
      "type": "function"
    },
    {
      "inputs": [
        {
          "name": "name_",
          "type": "string"
        },
        {
          "name": "symbol_",
          "type": "string"
        },
        {
          "name": "rolesContract",
          "type": "address"
        }
      ],
      "payable": false,
      "stateMutability": "nonpayable",
      "type": "constructor"
    },
    {
      "anonymous": false,
      "inputs": [
        {
          "indexed": true,
          "name": "src",
          "type": "address"
        },
        {
          "indexed": false,
          "name": "wad",
          "type": "uint256"
        }
      ],
      "name": "LogBurn",
      "type": "event"
    },
    {
      "anonymous": false,
      "inputs": [
        {
          "indexed": true,
          "name": "src",
          "type": "address"
        },
        {
          "indexed": false,
          "name": "wad",
          "type": "uint256"
        }
      ],
      "name": "LogMint",
      "type": "event"
    },
    {
      "anonymous": false,
      "inputs": [
        {
          "indexed": false,
          "name": "newLogic",
          "type": "address"
        }
      ],
      "name": "LogLogicReplaced",
      "type": "event"
    },
    {
      "anonymous": false,
      "inputs": [
        {
          "indexed": true,
          "name": "from",
          "type": "address"
        },
        {
          "indexed": true,
          "name": "to",
          "type": "address"
        },
        {
          "indexed": false,
          "name": "value",
          "type": "uint256"
        }
      ],
      "name": "Transfer",
      "type": "event"
    },
    {
      "anonymous": false,
      "inputs": [
        {
          "indexed": true,
          "name": "owner",
          "type": "address"
        },
        {
          "indexed": true,
          "name": "spender",
          "type": "address"
        },
        {
          "indexed": false,
          "name": "value",
          "type": "uint256"
        }
      ],
      "name": "Approval",
      "type": "event"
    },
    {
      "anonymous": false,
      "inputs": [
        {
          "indexed": false,
          "name": "newOwner",
          "type": "address"
        }
      ],
      "name": "LogSetOwner",
      "type": "event"
    },
    {
      "constant": true,
      "inputs": [],
      "name": "totalSupply",
      "outputs": [
        {
          "name": "",
          "type": "uint256"
        }
      ],
      "payable": false,
      "stateMutability": "view",
      "type": "function"
    },
    {
      "constant": true,
      "inputs": [
        {
          "name": "who",
          "type": "address"
        }
      ],
      "name": "balanceOf",
      "outputs": [
        {
          "name": "value",
          "type": "uint256"
        }
      ],
      "payable": false,
      "stateMutability": "view",
      "type": "function"
    },
    {
      "constant": true,
      "inputs": [
        {
          "name": "owner",
          "type": "address"
        },
        {
          "name": "spender",
          "type": "address"
        }
      ],
      "name": "allowance",
      "outputs": [
        {
          "name": "_allowance",
          "type": "uint256"
        }
      ],
      "payable": false,
      "stateMutability": "view",
      "type": "function"
    },
    {
      "constant": false,
      "inputs": [
        {
          "name": "wad",
          "type": "uint256"
        }
      ],
      "name": "burn",
      "outputs": [],
      "payable": false,
      "stateMutability": "nonpayable",
      "type": "function"
    },
    {
      "constant": false,
      "inputs": [
        {
          "name": "src",
          "type": "address"
        },
        {
          "name": "dst",
          "type": "address"
        },
        {
          "name": "wad",
          "type": "uint256"
        }
      ],
      "name": "triggerTransfer",
      "outputs": [],
      "payable": false,
      "stateMutability": "nonpayable",
      "type": "function"
    },
    {
      "constant": false,
      "inputs": [
        {
          "name": "dst",
          "type": "address"
        },
        {
          "name": "wad",
          "type": "uint256"
        }
      ],
      "name": "transfer",
      "outputs": [
        {
          "name": "",
          "type": "bool"
        }
      ],
      "payable": false,
      "stateMutability": "nonpayable",
      "type": "function"
    },
    {
      "constant": false,
      "inputs": [
        {
          "name": "src",
          "type": "address"
        },
        {
          "name": "dst",
          "type": "address"
        },
        {
          "name": "wad",
          "type": "uint256"
        }
      ],
      "name": "transferFrom",
      "outputs": [
        {
          "name": "",
          "type": "bool"
        }
      ],
      "payable": false,
      "stateMutability": "nonpayable",
      "type": "function"
    },
    {
      "constant": false,
      "inputs": [
        {
          "name": "guy",
          "type": "address"
        },
        {
          "name": "wad",
          "type": "uint256"
        }
      ],
      "name": "approve",
      "outputs": [
        {
          "name": "",
          "type": "bool"
        }
      ],
      "payable": false,
      "stateMutability": "nonpayable",
      "type": "function"
    },
    {
      "constant": false,
      "inputs": [
        {
          "name": "recipient",
          "type": "address"
        },
        {
          "name": "wad",
          "type": "uint256"
        }
      ],
      "name": "mintFor",
      "outputs": [],
      "payable": false,
      "stateMutability": "nonpayable",
      "type": "function"
    }
  ],
  "bytecode": "0x60606040526000600360006101000a81548160ff0219169083151502179055506012600660006101000a81548160ff021916908360ff16021790555034156200004757600080fd5b6040516200261938038062002619833981016040528080518201919060200180518201919060200180519060200190919050508281336000806101000a81548173ffffffffffffffffffffffffffffffffffffffff021916908373ffffffffffffffffffffffffffffffffffffffff160217905550816040518082805190602001908083835b602083101515620000f45780518252602082019150602081019050602083039250620000cd565b6001836020036101000a03801982511681845116808217855250505050505090500191505060405180910390206002816000191690555080600160006101000a81548173ffffffffffffffffffffffffffffffffffffffff021916908373ffffffffffffffffffffffffffffffffffffffff1602179055505050826005908051906020019062000186929190620001a9565b5081600490805190602001906200019f929190620001a9565b5050505062000258565b828054600181600116156101000203166002900490600052602060002090601f016020900481019282601f10620001ec57805160ff19168380011785556200021d565b828001600101855582156200021d579182015b828111156200021c578251825591602001919060010190620001ff565b5b5090506200022c919062000230565b5090565b6200025591905b808211156200025157600081600090555060010162000237565b5090565b90565b6123b180620002686000396000f300606060405260043610610154576000357c0100000000000000000000000000000000000000000000000000000000900463ffffffff16806306fdde0314610159578063095ea7b3146101e757806313af40351461024157806318160ddd1461027a5780631ca03b8e146102a35780631ef3755d1461031857806323b872dd1461032d578063313ce567146103a6578063392f5f64146103d557806342966c681461042a57806363a599a41461044d57806370a082311461046257806371857000146104af57806375f12b21146104e85780638da5cb5b14610515578063904c60941461056a57806395d89b411461059b578063a9059cbb14610629578063afa202ac14610683578063c47f0027146106bc578063d7dfa0dd14610719578063da1919b31461076e578063dd62ed3e146107b0578063e31a7c011461081c578063e3c33a9b1461087d578063f2d5d56b146108f2575b600080fd5b341561016457600080fd5b61016c61094c565b6040518080602001828103825283818151815260200191508051906020019080838360005b838110156101ac578082015181840152602081019050610191565b50505050905090810190601f1680156101d95780820380516001836020036101000a031916815260200191505b509250505060405180910390f35b34156101f257600080fd5b610227600480803573ffffffffffffffffffffffffffffffffffffffff169060200190919080359060200190919050506109ea565b604051808215151515815260200191505060405180910390f35b341561024c57600080fd5b610278600480803573ffffffffffffffffffffffffffffffffffffffff16906020019091905050610b9d565b005b341561028557600080fd5b61028d610cbf565b6040518082815260200191505060405180910390f35b34156102ae57600080fd5b6102fe600480803590602001908201803590602001908080601f01602080910402602001604051908101604052809392919081815260200183838082843782019150505050505091905050610d6f565b604051808215151515815260200191505060405180910390f35b341561032357600080fd5b61032b610eed565b005b341561033857600080fd5b61038c600480803573ffffffffffffffffffffffffffffffffffffffff1690602001909190803573ffffffffffffffffffffffffffffffffffffffff16906020019091908035906020019091905050610fac565b604051808215151515815260200191505060405180910390f35b34156103b157600080fd5b6103b96112a2565b604051808260ff1660ff16815260200191505060405180910390f35b34156103e057600080fd5b6103e86112b5565b604051808273ffffffffffffffffffffffffffffffffffffffff1673ffffffffffffffffffffffffffffffffffffffff16815260200191505060405180910390f35b341561043557600080fd5b61044b60048080359060200190919050506112db565b005b341561045857600080fd5b610460611420565b005b341561046d57600080fd5b610499600480803573ffffffffffffffffffffffffffffffffffffffff169060200190919050506114df565b6040518082815260200191505060405180910390f35b34156104ba57600080fd5b6104e6600480803573ffffffffffffffffffffffffffffffffffffffff169060200190919050506115c8565b005b34156104f357600080fd5b6104fb61177f565b604051808215151515815260200191505060405180910390f35b341561052057600080fd5b610528611792565b604051808273ffffffffffffffffffffffffffffffffffffffff1673ffffffffffffffffffffffffffffffffffffffff16815260200191505060405180910390f35b341561057557600080fd5b61057d6117b7565b60405180826000191660001916815260200191505060405180910390f35b34156105a657600080fd5b6105ae6117bd565b6040518080602001828103825283818151815260200191508051906020019080838360005b838110156105ee5780820151818401526020810190506105d3565b50505050905090810190601f16801561061b5780820380516001836020036101000a031916815260200191505b509250505060405180910390f35b341561063457600080fd5b610669600480803573ffffffffffffffffffffffffffffffffffffffff1690602001909190803590602001909190505061185b565b604051808215151515815260200191505060405180910390f35b341561068e57600080fd5b6106ba600480803573ffffffffffffffffffffffffffffffffffffffff16906020019091905050611b50565b005b34156106c757600080fd5b610717600480803590602001908201803590602001908080601f01602080910402602001604051908101604052809392919081815260200183838082843782019150505050505091905050611c4c565b005b341561072457600080fd5b61072c611d08565b604051808273ffffffffffffffffffffffffffffffffffffffff1673ffffffffffffffffffffffffffffffffffffffff16815260200191505060405180910390f35b341561077957600080fd5b6107ae600480803573ffffffffffffffffffffffffffffffffffffffff16906020019091908035906020019091905050611d2e565b005b34156107bb57600080fd5b610806600480803573ffffffffffffffffffffffffffffffffffffffff1690602001909190803573ffffffffffffffffffffffffffffffffffffffff16906020019091905050611f25565b6040518082815260200191505060405180910390f35b341561082757600080fd5b61087b600480803573ffffffffffffffffffffffffffffffffffffffff1690602001909190803573ffffffffffffffffffffffffffffffffffffffff16906020019091908035906020019091905050612043565b005b341561088857600080fd5b6108d8600480803590602001908201803590602001908080601f01602080910402602001604051908101604052809392919081815260200183838082843782019150505050505091905050612162565b604051808215151515815260200191505060405180910390f35b34156108fd57600080fd5b610932600480803573ffffffffffffffffffffffffffffffffffffffff1690602001909190803590602001909190505061229b565b604051808215151515815260200191505060405180910390f35b60058054600181600116156101000203166002900480601f0160208091040260200160405190810160405280929190818152602001828054600181600116156101000203166002900480156109e25780601f106109b7576101008083540402835291602001916109e2565b820191906000526020600020905b8154815290600101906020018083116109c557829003601f168201915b505050505081565b600080600360009054906101000a900460ff16151515610a0957600080fd5b600660019054906101000a900473ffffffffffffffffffffffffffffffffffffffff1673ffffffffffffffffffffffffffffffffffffffff1663e1f21c673386866000604051602001526040518463ffffffff167c0100000000000000000000000000000000000000000000000000000000028152600401808473ffffffffffffffffffffffffffffffffffffffff1673ffffffffffffffffffffffffffffffffffffffff1681526020018373ffffffffffffffffffffffffffffffffffffffff1673ffffffffffffffffffffffffffffffffffffffff1681526020018281526020019350505050602060405180830381600087803b1515610b0a57600080fd5b6102c65a03f11515610b1b57600080fd5b5050506040518051905090508015610b93578373ffffffffffffffffffffffffffffffffffffffff163373ffffffffffffffffffffffffffffffffffffffff167f8c5be1e5ebec7d5bd14f71427d1e84f3dd0314c0f7b2291e5b200ac8c7c3b925856040518082815260200191505060405180910390a35b8091505092915050565b6000809054906101000a900473ffffffffffffffffffffffffffffffffffffffff1673ffffffffffffffffffffffffffffffffffffffff163373ffffffffffffffffffffffffffffffffffffffff16141515610bf857600080fd5b806000806101000a81548173ffffffffffffffffffffffffffffffffffffffff021916908373ffffffffffffffffffffffffffffffffffffffff1602179055507fce241d7ca1f669fee44b6fc00b8eba2df3bb514eed0f6f668f8f89096e81ed946000809054906101000a900473ffffffffffffffffffffffffffffffffffffffff16604051808273ffffffffffffffffffffffffffffffffffffffff1673ffffffffffffffffffffffffffffffffffffffff16815260200191505060405180910390a150565b6000600660019054906101000a900473ffffffffffffffffffffffffffffffffffffffff1673ffffffffffffffffffffffffffffffffffffffff166318160ddd6000604051602001526040518163ffffffff167c0100000000000000000000000000000000000000000000000000000000028152600401602060405180830381600087803b1515610d4f57600080fd5b6102c65a03f11515610d6057600080fd5b50505060405180519050905090565b6000610d7a82612162565b8015610ee65750600160009054906101000a900473ffffffffffffffffffffffffffffffffffffffff1673ffffffffffffffffffffffffffffffffffffffff16638b51ca42600254846040518082805190602001908083835b602083101515610df85780518252602082019150602081019050602083039250610dd3565b6001836020036101000a0380198251168184511680821785525050505050509050019150506040518091039020336000604051602001526040518463ffffffff167c010000000000000000000000000000000000000000000000000000000002815260040180846000191660001916815260200183600019166000191681526020018273ffffffffffffffffffffffffffffffffffffffff1673ffffffffffffffffffffffffffffffffffffffff1681526020019350505050602060405180830381600087803b1515610eca57600080fd5b6102c65a03f11515610edb57600080fd5b505050604051805190505b9050919050565b6040805190810160405280600981526020017f72657374617274657200000000000000000000000000000000000000000000008152506000809054906101000a900473ffffffffffffffffffffffffffffffffffffffff1673ffffffffffffffffffffffffffffffffffffffff163373ffffffffffffffffffffffffffffffffffffffff161480610f835750610f8281610d6f565b5b1515610f8e57600080fd5b6000600360006101000a81548160ff02191690831515021790555050565b600080600080610fba6122cc565b600360009054906101000a900460ff16151515610fd657600080fd5b600660019054906101000a900473ffffffffffffffffffffffffffffffffffffffff1673ffffffffffffffffffffffffffffffffffffffff166323b872dd8989896000604051602001526040518463ffffffff167c0100000000000000000000000000000000000000000000000000000000028152600401808473ffffffffffffffffffffffffffffffffffffffff1673ffffffffffffffffffffffffffffffffffffffff1681526020018373ffffffffffffffffffffffffffffffffffffffff1673ffffffffffffffffffffffffffffffffffffffff1681526020018281526020019350505050602060405180830381600087803b15156110d757600080fd5b6102c65a03f115156110e857600080fd5b505050604051805190509350831561129457863b9250600083111561122e578691508173ffffffffffffffffffffffffffffffffffffffff1663c0ee0b8a8988846040518463ffffffff167c0100000000000000000000000000000000000000000000000000000000028152600401808473ffffffffffffffffffffffffffffffffffffffff1673ffffffffffffffffffffffffffffffffffffffff16815260200183815260200180602001828103825283818151815260200191508051906020019080838360005b838110156111cc5780820151818401526020810190506111b1565b50505050905090810190601f1680156111f95780820380516001836020036101000a031916815260200191505b50945050505050600060405180830381600087803b151561121957600080fd5b6102c65a03f1151561122a57600080fd5b5050505b8673ffffffffffffffffffffffffffffffffffffffff168873ffffffffffffffffffffffffffffffffffffffff167fddf252ad1be2c89b69c2b068fc378daa952ba7f163c4a11628f55a4df523b3ef886040518082815260200191505060405180910390a35b839450505050509392505050565b600660009054906101000a900460ff1681565b600160009054906101000a900473ffffffffffffffffffffffffffffffffffffffff1681565b600360009054906101000a900460ff161515156112f757600080fd5b600660019054906101000a900473ffffffffffffffffffffffffffffffffffffffff1673ffffffffffffffffffffffffffffffffffffffff16639dc29fac33836040518363ffffffff167c0100000000000000000000000000000000000000000000000000000000028152600401808373ffffffffffffffffffffffffffffffffffffffff1673ffffffffffffffffffffffffffffffffffffffff16815260200182815260200192505050600060405180830381600087803b15156113bb57600080fd5b6102c65a03f115156113cc57600080fd5b5050503373ffffffffffffffffffffffffffffffffffffffff167f38d762ef507761291a578e921acfe29c1af31a7331ea03e391cf16cfc4d4f581826040518082815260200191505060405180910390a250565b6040805190810160405280600781526020017f73746f70706572000000000000000000000000000000000000000000000000008152506000809054906101000a900473ffffffffffffffffffffffffffffffffffffffff1673ffffffffffffffffffffffffffffffffffffffff163373ffffffffffffffffffffffffffffffffffffffff1614806114b657506114b581610d6f565b5b15156114c157600080fd5b6001600360006101000a81548160ff02191690831515021790555050565b6000600660019054906101000a900473ffffffffffffffffffffffffffffffffffffffff1673ffffffffffffffffffffffffffffffffffffffff166370a08231836000604051602001526040518263ffffffff167c0100000000000000000000000000000000000000000000000000000000028152600401808273ffffffffffffffffffffffffffffffffffffffff1673ffffffffffffffffffffffffffffffffffffffff168152602001915050602060405180830381600087803b15156115a657600080fd5b6102c65a03f115156115b757600080fd5b505050604051805190509050919050565b600073ffffffffffffffffffffffffffffffffffffffff16600660019054906101000a900473ffffffffffffffffffffffffffffffffffffffff1673ffffffffffffffffffffffffffffffffffffffff16148061167257503373ffffffffffffffffffffffffffffffffffffffff16600660019054906101000a900473ffffffffffffffffffffffffffffffffffffffff1673ffffffffffffffffffffffffffffffffffffffff16145b151561167d57600080fd5b600073ffffffffffffffffffffffffffffffffffffffff168173ffffffffffffffffffffffffffffffffffffffff16141515156116b657fe5b80600660016101000a81548173ffffffffffffffffffffffffffffffffffffffff021916908373ffffffffffffffffffffffffffffffffffffffff1602179055507ffe2210ec3c91da0ee4bf50e5962a84bb51e9e2196c49c371b20c2b5226974e5e600660019054906101000a900473ffffffffffffffffffffffffffffffffffffffff16604051808273ffffffffffffffffffffffffffffffffffffffff1673ffffffffffffffffffffffffffffffffffffffff16815260200191505060405180910390a150565b600360009054906101000a900460ff1681565b6000809054906101000a900473ffffffffffffffffffffffffffffffffffffffff1681565b60025481565b60048054600181600116156101000203166002900480601f0160208091040260200160405190810160405280929190818152602001828054600181600116156101000203166002900480156118535780601f1061182857610100808354040283529160200191611853565b820191906000526020600020905b81548152906001019060200180831161183657829003601f168201915b505050505081565b6000806000806118696122cc565b600360009054906101000a900460ff1615151561188557600080fd5b600660019054906101000a900473ffffffffffffffffffffffffffffffffffffffff1673ffffffffffffffffffffffffffffffffffffffff1663beabacc83389896000604051602001526040518463ffffffff167c0100000000000000000000000000000000000000000000000000000000028152600401808473ffffffffffffffffffffffffffffffffffffffff1673ffffffffffffffffffffffffffffffffffffffff1681526020018373ffffffffffffffffffffffffffffffffffffffff1673ffffffffffffffffffffffffffffffffffffffff1681526020018281526020019350505050602060405180830381600087803b151561198657600080fd5b6102c65a03f1151561199757600080fd5b5050506040518051905093508315611b4357863b92506000831115611add578691508173ffffffffffffffffffffffffffffffffffffffff1663c0ee0b8a3388846040518463ffffffff167c0100000000000000000000000000000000000000000000000000000000028152600401808473ffffffffffffffffffffffffffffffffffffffff1673ffffffffffffffffffffffffffffffffffffffff16815260200183815260200180602001828103825283818151815260200191508051906020019080838360005b83811015611a7b578082015181840152602081019050611a60565b50505050905090810190601f168015611aa85780820380516001836020036101000a031916815260200191505b50945050505050600060405180830381600087803b1515611ac857600080fd5b6102c65a03f11515611ad957600080fd5b5050505b8673ffffffffffffffffffffffffffffffffffffffff163373ffffffffffffffffffffffffffffffffffffffff167fddf252ad1be2c89b69c2b068fc378daa952ba7f163c4a11628f55a4df523b3ef886040518082815260200191505060405180910390a35b8394505050505092915050565b6000809054906101000a900473ffffffffffffffffffffffffffffffffffffffff1673ffffffffffffffffffffffffffffffffffffffff163373ffffffffffffffffffffffffffffffffffffffff16141515611bab57600080fd5b600160009054906101000a900473ffffffffffffffffffffffffffffffffffffffff1673ffffffffffffffffffffffffffffffffffffffff163073ffffffffffffffffffffffffffffffffffffffff1614151515611c0857600080fd5b80600160006101000a81548173ffffffffffffffffffffffffffffffffffffffff021916908373ffffffffffffffffffffffffffffffffffffffff16021790555050565b6040805190810160405280600581526020017f61646d696e0000000000000000000000000000000000000000000000000000008152506000809054906101000a900473ffffffffffffffffffffffffffffffffffffffff1673ffffffffffffffffffffffffffffffffffffffff163373ffffffffffffffffffffffffffffffffffffffff161480611ce25750611ce181610d6f565b5b1515611ced57600080fd5b8160059080519060200190611d039291906122e0565b505050565b600660019054906101000a900473ffffffffffffffffffffffffffffffffffffffff1681565b600360009054906101000a900460ff16151515611d4a57600080fd5b6040805190810160405280600681526020017f6d696e7465720000000000000000000000000000000000000000000000000000815250611d8981610d6f565b1515611d9457600080fd5b600660019054906101000a900473ffffffffffffffffffffffffffffffffffffffff1673ffffffffffffffffffffffffffffffffffffffff1663da1919b384846040518363ffffffff167c0100000000000000000000000000000000000000000000000000000000028152600401808373ffffffffffffffffffffffffffffffffffffffff1673ffffffffffffffffffffffffffffffffffffffff16815260200182815260200192505050600060405180830381600087803b1515611e5857600080fd5b6102c65a03f11515611e6957600080fd5b5050508273ffffffffffffffffffffffffffffffffffffffff167f9f494565851dbcb31fb5198ca217cda6833282fadb96ba9431bd19c82afc1dd3836040518082815260200191505060405180910390a28273ffffffffffffffffffffffffffffffffffffffff16600073ffffffffffffffffffffffffffffffffffffffff167fddf252ad1be2c89b69c2b068fc378daa952ba7f163c4a11628f55a4df523b3ef846040518082815260200191505060405180910390a3505050565b6000600660019054906101000a900473ffffffffffffffffffffffffffffffffffffffff1673ffffffffffffffffffffffffffffffffffffffff1663dd62ed3e84846000604051602001526040518363ffffffff167c0100000000000000000000000000000000000000000000000000000000028152600401808373ffffffffffffffffffffffffffffffffffffffff1673ffffffffffffffffffffffffffffffffffffffff1681526020018273ffffffffffffffffffffffffffffffffffffffff1673ffffffffffffffffffffffffffffffffffffffff16815260200192505050602060405180830381600087803b151561202057600080fd5b6102c65a03f1151561203157600080fd5b50505060405180519050905092915050565b600073ffffffffffffffffffffffffffffffffffffffff16600660019054906101000a900473ffffffffffffffffffffffffffffffffffffffff1673ffffffffffffffffffffffffffffffffffffffff1614806120ed57503373ffffffffffffffffffffffffffffffffffffffff16600660019054906101000a900473ffffffffffffffffffffffffffffffffffffffff1673ffffffffffffffffffffffffffffffffffffffff16145b15156120f857600080fd5b8173ffffffffffffffffffffffffffffffffffffffff168373ffffffffffffffffffffffffffffffffffffffff167fddf252ad1be2c89b69c2b068fc378daa952ba7f163c4a11628f55a4df523b3ef836040518082815260200191505060405180910390a3505050565b6000600160009054906101000a900473ffffffffffffffffffffffffffffffffffffffff1673ffffffffffffffffffffffffffffffffffffffff16633037cea3600254846040518082805190602001908083835b6020831015156121db57805182526020820191506020810190506020830392506121b6565b6001836020036101000a03801982511681845116808217855250505050505090500191505060405180910390206000604051602001526040518363ffffffff167c0100000000000000000000000000000000000000000000000000000000028152600401808360001916600019168152602001826000191660001916815260200192505050602060405180830381600087803b151561227957600080fd5b6102c65a03f1151561228a57600080fd5b505050604051805190509050919050565b6000600360009054906101000a900460ff161515156122b957600080fd5b6122c4833384610fac565b905092915050565b602060405190810160405280600081525090565b828054600181600116156101000203166002900490600052602060002090601f016020900481019282601f1061232157805160ff191683800117855561234f565b8280016001018555821561234f579182015b8281111561234e578251825591602001919060010190612333565b5b50905061235c9190612360565b5090565b61238291905b8082111561237e576000816000905550600101612366565b5090565b905600a165627a7a7230582016266a0ccfab625217c26553dfe73fea93d89dbce52d7d7126b33247d0d908dd0029",
  "source": "// Copyright (c) 2018 Company Inc.\n// Copyright (C) 2015, 2016, 2017  DappHub, LLC\n//\n// Licensed under the Apache License, Version 2.0 (the \"License\");\n// you may not use this file except in compliance with the License.\n// You may obtain a copy of the License at\n//\n//     http://www.apache.org/licenses/LICENSE-2.0\n//\n// Unless required by applicable law or agreed to in writing, software\n// distributed under the License is distributed on an \"AS IS\" BASIS,\n// WITHOUT WARRANTIES OR CONDITIONS OF ANY KIND, either express or implied.\n// See the License for the specific language governing permissions and\n// limitations under the License.\n\npragma solidity ^0.4.19;\n\nimport \"../authority/Roles.sol\";\nimport \"./TokenLogic.sol\";\n\n\ninterface TokenI {\n    function totalSupply() public view returns (uint256 supply);\n    function balanceOf( address who ) public  view returns (uint256 value);\n    function allowance( address owner, address spender ) public view returns (uint256 _allowance);\n    function burn( uint256 wad ) public;\n    function triggerTransfer(address src, address dst, uint256 wad) public;\n    function transfer( address to, uint256 value) public returns (bool ok);\n    function transferFrom( address from, address to, uint256 value) public returns (bool ok);\n    function approve( address spender, uint256 value ) public returns (bool ok);\n\n    function mintFor(address recipient, uint256 wad) public;\n}\n\n\ncontract TokenEvents {\n    event LogBurn(address indexed src, uint256 wad);\n    event LogMint(address indexed src, uint256 wad);\n    event LogLogicReplaced(address newLogic);\n    event Transfer(address indexed from, address indexed to, uint256 value);\n    event Approval(address indexed owner, address indexed spender, uint256 value);\n}\n\n\ncontract Token is TokenI, SecuredWithRoles, TokenEvents {\n    string public symbol;\n    string public name; // Optional token name\n    uint8 public decimals = 18; // standard token precision. override to customize\n    TokenLogicI public logic;\n\n    function Token(string name_, string symbol_, address rolesContract) public SecuredWithRoles(name_, rolesContract) {\n        // you can't create logic here, because this contract would be the owner.\n        name = name_;\n        symbol = symbol_;\n    }\n\n    modifier logicOnly {\n        require(address(logic) == address(0x0) || address(logic) == msg.sender);\n        _;\n    }\n\n    function totalSupply() public view returns (uint256) {\n        return logic.totalSupply();\n    }\n\n    function balanceOf( address who ) public view returns (uint256 value) {\n        return logic.balanceOf(who);\n    }\n\n    function allowance(address owner, address spender ) public view returns (uint256 _allowance) {\n        return logic.allowance(owner, spender);\n    }\n\n    function triggerTransfer(address src, address dst, uint256 wad) public logicOnly {\n        Transfer(src, dst, wad);\n    }\n\n    function setLogic(address logic_) public logicOnly {\n        assert(logic_ != address(0));\n        logic = TokenLogicI(logic_);\n        LogLogicReplaced(logic);\n    }\n\n    /**\n     * @dev Transfer the specified amount of tokens to the specified address.\n     *      Invokes the `tokenFallback` function if the recipient is a contract.\n     *      The token transfer fails if the recipient is a contract\n     *      but does not implement the `tokenFallback` function\n     *      or the fallback function to receive funds.\n     */\n    function transfer(address dst, uint256 wad) public stoppable returns (bool) {\n        bool retVal = logic.transfer(msg.sender, dst, wad);\n        if (retVal) {\n            uint codeLength;\n            assembly {\n                // Retrieve the size of the code on target address, this needs assembly .\n                codeLength := extcodesize(dst)\n            }\n            if (codeLength>0) {\n                ERC223ReceivingContract receiver = ERC223ReceivingContract(dst);\n                bytes memory empty;\n                receiver.tokenFallback(msg.sender, wad, empty);\n            }\n\n            Transfer(msg.sender, dst, wad);\n        }\n        return retVal;\n    }\n\n    function transferFrom(address src, address dst, uint256 wad) public stoppable returns (bool) {\n        bool retVal = logic.transferFrom(src, dst, wad);\n        if (retVal) {\n            uint codeLength;\n            assembly {\n                // Retrieve the size of the code on target address, this needs assembly .\n                codeLength := extcodesize(dst)\n            }\n            if (codeLength>0) {\n                ERC223ReceivingContract receiver = ERC223ReceivingContract(dst);\n                bytes memory empty;\n                receiver.tokenFallback(src, wad, empty);\n            }\n\n            Transfer(src, dst, wad);\n        }\n        return retVal;\n    }\n\n    function approve(address guy, uint256 wad) public stoppable returns (bool) {\n        bool ok = logic.approve(msg.sender, guy, wad);\n        if (ok)\n            Approval(msg.sender, guy, wad);\n        return ok;\n    }\n\n    function pull(address src, uint256 wad) public stoppable returns (bool) {\n        return transferFrom(src, msg.sender, wad);\n    }\n\n    function mintFor(address recipient, uint256 wad) public stoppable onlyRole(\"minter\") {\n        logic.mintFor(recipient, wad);\n        LogMint(recipient, wad);\n        Transfer(address(0x0), recipient, wad);\n    }\n\n    function burn(uint256 wad) public stoppable {\n        logic.burn(msg.sender, wad);\n        LogBurn(msg.sender, wad);\n    }\n\n    function setName(string name_) public roleOrOwner(\"admin\") {\n        name = name_;\n    }\n}\n",
  "sourcePath": "/Users/mbenhajla/Documents/Blockchain_Projekte/Trecento/trecentoproject/contracts/tokens/Token.sol",
  "compiler": {
    "name": "solc",
    "version": "0.4.19+commit.c4cbbb05.Emscripten.clang"
  },
  "schemaVersion": "1.0.1",
  "updatedAt": "2018-04-01T16:19:55.540Z"
}