{
  "contractName": "TokenLogic",
  "abi": [
    {
      "constant": false,
      "inputs": [
        {
          "name": "owner_",
          "type": "address"
        }
      ],
      "name": "setOwner",
      "outputs": [],
      "payable": false,
      "stateMutability": "nonpayable",
      "type": "function"
    },
    {
      "constant": true,
      "inputs": [
        {
          "name": "roleName",
          "type": "string"
        }
      ],
      "name": "senderHasRole",
      "outputs": [
        {
          "name": "",
          "type": "bool"
        }
      ],
      "payable": false,
      "stateMutability": "view",
      "type": "function"
    },
    {
      "constant": false,
      "inputs": [],
      "name": "restart",
      "outputs": [],
      "payable": false,
      "stateMutability": "nonpayable",
      "type": "function"
    },
    {
      "constant": true,
      "inputs": [],
      "name": "freeTransfer",
      "outputs": [
        {
          "name": "",
          "type": "bool"
        }
      ],
      "payable": false,
      "stateMutability": "view",
      "type": "function"
    },
    {
      "constant": true,
      "inputs": [],
      "name": "roles",
      "outputs": [
        {
          "name": "",
          "type": "address"
        }
      ],
      "payable": false,
      "stateMutability": "view",
      "type": "function"
    },
    {
      "constant": true,
      "inputs": [
        {
          "name": "",
          "type": "address"
        },
        {
          "name": "",
          "type": "bytes32"
        }
      ],
      "name": "whiteLists",
      "outputs": [
        {
          "name": "",
          "type": "bool"
        }
      ],
      "payable": false,
      "stateMutability": "view",
      "type": "function"
    },
    {
      "constant": false,
      "inputs": [],
      "name": "emergencyStop",
      "outputs": [],
      "payable": false,
      "stateMutability": "nonpayable",
      "type": "function"
    },
    {
      "constant": true,
      "inputs": [
        {
          "name": "",
          "type": "uint256"
        }
      ],
      "name": "listNames",
      "outputs": [
        {
          "name": "",
          "type": "bytes32"
        }
      ],
      "payable": false,
      "stateMutability": "view",
      "type": "function"
    },
    {
      "constant": true,
      "inputs": [],
      "name": "data",
      "outputs": [
        {
          "name": "",
          "type": "address"
        }
      ],
      "payable": false,
      "stateMutability": "view",
      "type": "function"
    },
    {
      "constant": true,
      "inputs": [],
      "name": "stopped",
      "outputs": [
        {
          "name": "",
          "type": "bool"
        }
      ],
      "payable": false,
      "stateMutability": "view",
      "type": "function"
    },
    {
      "constant": true,
      "inputs": [],
      "name": "owner",
      "outputs": [
        {
          "name": "",
          "type": "address"
        }
      ],
      "payable": false,
      "stateMutability": "view",
      "type": "function"
    },
    {
      "constant": true,
      "inputs": [],
      "name": "contractHash",
      "outputs": [
        {
          "name": "",
          "type": "bytes32"
        }
      ],
      "payable": false,
      "stateMutability": "view",
      "type": "function"
    },
    {
      "constant": false,
      "inputs": [
        {
          "name": "roles_",
          "type": "address"
        }
      ],
      "name": "setRolesContract",
      "outputs": [],
      "payable": false,
      "stateMutability": "nonpayable",
      "type": "function"
    },
    {
      "constant": true,
      "inputs": [
        {
          "name": "roleName",
          "type": "string"
        }
      ],
      "name": "hasRole",
      "outputs": [
        {
          "name": "",
          "type": "bool"
        }
      ],
      "payable": false,
      "stateMutability": "view",
      "type": "function"
    },
    {
      "constant": true,
      "inputs": [],
      "name": "token",
      "outputs": [
        {
          "name": "",
          "type": "address"
        }
      ],
      "payable": false,
      "stateMutability": "view",
      "type": "function"
    },
    {
      "inputs": [
        {
          "name": "token_",
          "type": "address"
        },
        {
          "name": "tokenData_",
          "type": "address"
        },
        {
          "name": "rolesContract",
          "type": "address"
        }
      ],
      "payable": false,
      "stateMutability": "nonpayable",
      "type": "constructor"
    },
    {
      "anonymous": false,
      "inputs": [
        {
          "indexed": false,
          "name": "newOwner",
          "type": "address"
        }
      ],
      "name": "LogSetOwner",
      "type": "event"
    },
    {
      "anonymous": false,
      "inputs": [
        {
          "indexed": false,
          "name": "listName",
          "type": "bytes32"
        }
      ],
      "name": "WhiteListAddition",
      "type": "event"
    },
    {
      "anonymous": false,
      "inputs": [
        {
          "indexed": false,
          "name": "listName",
          "type": "bytes32"
        },
        {
          "indexed": false,
          "name": "guy",
          "type": "address"
        }
      ],
      "name": "AdditionToWhiteList",
      "type": "event"
    },
    {
      "anonymous": false,
      "inputs": [
        {
          "indexed": false,
          "name": "listName",
          "type": "bytes32"
        }
      ],
      "name": "WhiteListRemoval",
      "type": "event"
    },
    {
      "anonymous": false,
      "inputs": [
        {
          "indexed": false,
          "name": "listName",
          "type": "bytes32"
        },
        {
          "indexed": false,
          "name": "guy",
          "type": "address"
        }
      ],
      "name": "RemovalFromWhiteList",
      "type": "event"
    },
    {
      "constant": true,
      "inputs": [],
      "name": "listNamesLen",
      "outputs": [
        {
          "name": "",
          "type": "uint256"
        }
      ],
      "payable": false,
      "stateMutability": "view",
      "type": "function"
    },
    {
      "constant": true,
      "inputs": [
        {
          "name": "listName",
          "type": "bytes32"
        }
      ],
      "name": "listExists",
      "outputs": [
        {
          "name": "",
          "type": "bool"
        }
      ],
      "payable": false,
      "stateMutability": "view",
      "type": "function"
    },
    {
      "constant": true,
      "inputs": [
        {
          "name": "listName",
          "type": "bytes32"
        }
      ],
      "name": "indexOf",
      "outputs": [
        {
          "name": "",
          "type": "uint8"
        },
        {
          "name": "",
          "type": "bool"
        }
      ],
      "payable": false,
      "stateMutability": "view",
      "type": "function"
    },
    {
      "constant": false,
      "inputs": [
        {
          "name": "newLogic",
          "type": "address"
        }
      ],
      "name": "replaceLogic",
      "outputs": [],
      "payable": false,
      "stateMutability": "nonpayable",
      "type": "function"
    },
    {
      "constant": false,
      "inputs": [
        {
          "name": "listName",
          "type": "bytes32"
        }
      ],
      "name": "addWhiteList",
      "outputs": [],
      "payable": false,
      "stateMutability": "nonpayable",
      "type": "function"
    },
    {
      "constant": false,
      "inputs": [
        {
          "name": "listName",
          "type": "bytes32"
        }
      ],
      "name": "removeWhiteList",
      "outputs": [],
      "payable": false,
      "stateMutability": "nonpayable",
      "type": "function"
    },
    {
      "constant": false,
      "inputs": [
        {
          "name": "listName",
          "type": "bytes32"
        },
        {
          "name": "guy",
          "type": "address"
        }
      ],
      "name": "addToWhiteList",
      "outputs": [],
      "payable": false,
      "stateMutability": "nonpayable",
      "type": "function"
    },
    {
      "constant": false,
      "inputs": [
        {
          "name": "listName",
          "type": "bytes32"
        },
        {
          "name": "guy",
          "type": "address"
        }
      ],
      "name": "removeFromWhiteList",
      "outputs": [],
      "payable": false,
      "stateMutability": "nonpayable",
      "type": "function"
    },
    {
      "constant": false,
      "inputs": [
        {
          "name": "isFree",
          "type": "bool"
        }
      ],
      "name": "setFreeTransfer",
      "outputs": [],
      "payable": false,
      "stateMutability": "nonpayable",
      "type": "function"
    },
    {
      "constant": false,
      "inputs": [
        {
          "name": "token_",
          "type": "address"
        }
      ],
      "name": "setToken",
      "outputs": [],
      "payable": false,
      "stateMutability": "nonpayable",
      "type": "function"
    },
    {
      "constant": true,
      "inputs": [],
      "name": "totalSupply",
      "outputs": [
        {
          "name": "",
          "type": "uint256"
        }
      ],
      "payable": false,
      "stateMutability": "view",
      "type": "function"
    },
    {
      "constant": true,
      "inputs": [
        {
          "name": "src",
          "type": "address"
        }
      ],
      "name": "balanceOf",
      "outputs": [
        {
          "name": "",
          "type": "uint256"
        }
      ],
      "payable": false,
      "stateMutability": "view",
      "type": "function"
    },
    {
      "constant": true,
      "inputs": [
        {
          "name": "src",
          "type": "address"
        },
        {
          "name": "spender",
          "type": "address"
        }
      ],
      "name": "allowance",
      "outputs": [
        {
          "name": "",
          "type": "uint256"
        }
      ],
      "payable": false,
      "stateMutability": "view",
      "type": "function"
    },
    {
      "constant": false,
      "inputs": [
        {
          "name": "src",
          "type": "address"
        },
        {
          "name": "dst",
          "type": "address"
        },
        {
          "name": "wad",
          "type": "uint256"
        }
      ],
      "name": "transfer",
      "outputs": [
        {
          "name": "",
          "type": "bool"
        }
      ],
      "payable": false,
      "stateMutability": "nonpayable",
      "type": "function"
    },
    {
      "constant": false,
      "inputs": [
        {
          "name": "src",
          "type": "address"
        },
        {
          "name": "dst",
          "type": "address"
        },
        {
          "name": "wad",
          "type": "uint256"
        }
      ],
      "name": "transferFrom",
      "outputs": [
        {
          "name": "",
          "type": "bool"
        }
      ],
      "payable": false,
      "stateMutability": "nonpayable",
      "type": "function"
    },
    {
      "constant": false,
      "inputs": [
        {
          "name": "src",
          "type": "address"
        },
        {
          "name": "dst",
          "type": "address"
        },
        {
          "name": "wad",
          "type": "uint256"
        }
      ],
      "name": "approve",
      "outputs": [
        {
          "name": "",
          "type": "bool"
        }
      ],
      "payable": false,
      "stateMutability": "nonpayable",
      "type": "function"
    },
    {
      "constant": false,
      "inputs": [
        {
          "name": "dst",
          "type": "address"
        },
        {
          "name": "wad",
          "type": "uint256"
        }
      ],
      "name": "mintFor",
      "outputs": [],
      "payable": false,
      "stateMutability": "nonpayable",
      "type": "function"
    },
    {
      "constant": false,
      "inputs": [
        {
          "name": "src",
          "type": "address"
        },
        {
          "name": "wad",
          "type": "uint256"
        }
      ],
      "name": "burn",
      "outputs": [],
      "payable": false,
      "stateMutability": "nonpayable",
      "type": "function"
    }
  ],
  "bytecode": "0x60806040526000600360006101000a81548160ff0219169083151502179055506001600760006101000a81548160ff0219169083151502179055503480156200004757600080fd5b50604051606080620042bc8339810180604052810190808051906020019092919080519060200190929190805190602001909291905050506040805190810160405280600a81526020017f546f6b656e4c6f6769630000000000000000000000000000000000000000000081525081336000806101000a81548173ffffffffffffffffffffffffffffffffffffffff021916908373ffffffffffffffffffffffffffffffffffffffff160217905550816040518082805190602001908083835b6020831015156200012e578051825260208201915060208101905060208303925062000107565b6001836020036101000a03801982511681845116808217855250505050505090500191505060405180910390206002816000191690555080600160006101000a81548173ffffffffffffffffffffffffffffffffffffffff021916908373ffffffffffffffffffffffffffffffffffffffff1602179055505050600073ffffffffffffffffffffffffffffffffffffffff168373ffffffffffffffffffffffffffffffffffffffff1614151515620001e557600080fd5b600073ffffffffffffffffffffffffffffffffffffffff168173ffffffffffffffffffffffffffffffffffffffff16141515156200022257600080fd5b82600460006101000a81548173ffffffffffffffffffffffffffffffffffffffff021916908373ffffffffffffffffffffffffffffffffffffffff160217905550600073ffffffffffffffffffffffffffffffffffffffff168273ffffffffffffffffffffffffffffffffffffffff16141562000372573033620002a5620003bd565b808373ffffffffffffffffffffffffffffffffffffffff1673ffffffffffffffffffffffffffffffffffffffff1681526020018273ffffffffffffffffffffffffffffffffffffffff1673ffffffffffffffffffffffffffffffffffffffff16815260200192505050604051809103906000f0801580156200032b573d6000803e3d6000fd5b50600360016101000a81548173ffffffffffffffffffffffffffffffffffffffff021916908373ffffffffffffffffffffffffffffffffffffffff160217905550620003b4565b81600360016101000a81548173ffffffffffffffffffffffffffffffffffffffff021916908373ffffffffffffffffffffffffffffffffffffffff1602179055505b505050620003ce565b60405161090780620039b583390190565b6135d780620003de6000396000f3006080604052600436106101a1576000357c0100000000000000000000000000000000000000000000000000000000900463ffffffff16806313af4035146101a6578063144fa6d7146101e957806318160ddd1461022c5780631ca03b8e146102575780631ef3755d146102d85780631f99c458146102ef578063211ed6c11461031a57806323b872dd146103495780632abfaf1f146103ce578063392f5f64146103fd5780633bd04d69146104545780633f32aa70146104855780634b4d0d45146104d657806363a599a41461053f5780636627262314610556578063693382a91461059f5780636f4ce56a146105f057806370a082311461064657806373d4a13a1461069d57806375f12b21146106f45780638da5cb5b14610723578063904c60941461077a5780639495ad6c146107ad5780639aef8999146107f65780639dc29fac14610827578063afa202ac14610874578063beabacc8146108b7578063c8d47f161461093c578063da1919b31461097f578063dd62ed3e146109cc578063e1f21c6714610a43578063e3c33a9b14610ac8578063fc0c546a14610b49575b600080fd5b3480156101b257600080fd5b506101e7600480360381019080803573ffffffffffffffffffffffffffffffffffffffff169060200190929190505050610ba0565b005b3480156101f557600080fd5b5061022a600480360381019080803573ffffffffffffffffffffffffffffffffffffffff169060200190929190505050610cc2565b005b34801561023857600080fd5b50610241610d61565b6040518082815260200191505060405180910390f35b34801561026357600080fd5b506102be600480360381019080803590602001908201803590602001908080601f0160208091040260200160405190810160405280939291908181526020018383808284378201915050505050509192919290505050610e29565b604051808215151515815260200191505060405180910390f35b3480156102e457600080fd5b506102ed610fbf565b005b3480156102fb57600080fd5b5061030461107e565b6040518082815260200191505060405180910390f35b34801561032657600080fd5b5061032f61108b565b604051808215151515815260200191505060405180910390f35b34801561035557600080fd5b506103b4600480360381019080803573ffffffffffffffffffffffffffffffffffffffff169060200190929190803573ffffffffffffffffffffffffffffffffffffffff1690602001909291908035906020019092919050505061109e565b604051808215151515815260200191505060405180910390f35b3480156103da57600080fd5b506103fb6004803603810190808035151590602001909291905050506117e1565b005b34801561040957600080fd5b50610412611859565b604051808273ffffffffffffffffffffffffffffffffffffffff1673ffffffffffffffffffffffffffffffffffffffff16815260200191505060405180910390f35b34801561046057600080fd5b50610483600480360381019080803560001916906020019092919050505061187f565b005b34801561049157600080fd5b506104d46004803603810190808035600019169060200190929190803573ffffffffffffffffffffffffffffffffffffffff169060200190929190505050611968565b005b3480156104e257600080fd5b50610525600480360381019080803573ffffffffffffffffffffffffffffffffffffffff1690602001909291908035600019169060200190929190505050611aaf565b604051808215151515815260200191505060405180910390f35b34801561054b57600080fd5b50610554611ade565b005b34801561056257600080fd5b5061058160048036038101908080359060200190929190505050611b9d565b60405180826000191660001916815260200191505060405180910390f35b3480156105ab57600080fd5b506105ee6004803603810190808035600019169060200190929190803573ffffffffffffffffffffffffffffffffffffffff169060200190929190505050611bc0565b005b3480156105fc57600080fd5b5061061f6004803603810190808035600019169060200190929190505050611d07565b604051808360ff1660ff168152602001821515151581526020019250505060405180910390f35b34801561065257600080fd5b50610687600480360381019080803573ffffffffffffffffffffffffffffffffffffffff169060200190929190505050611d76565b6040518082815260200191505060405180910390f35b3480156106a957600080fd5b506106b2611e77565b604051808273ffffffffffffffffffffffffffffffffffffffff1673ffffffffffffffffffffffffffffffffffffffff16815260200191505060405180910390f35b34801561070057600080fd5b50610709611e9d565b604051808215151515815260200191505060405180910390f35b34801561072f57600080fd5b50610738611eb0565b604051808273ffffffffffffffffffffffffffffffffffffffff1673ffffffffffffffffffffffffffffffffffffffff16815260200191505060405180910390f35b34801561078657600080fd5b5061078f611ed5565b60405180826000191660001916815260200191505060405180910390f35b3480156107b957600080fd5b506107dc6004803603810190808035600019169060200190929190505050611edb565b604051808215151515815260200191505060405180910390f35b34801561080257600080fd5b506108256004803603810190808035600019169060200190929190505050611ef6565b005b34801561083357600080fd5b50610872600480360381019080803573ffffffffffffffffffffffffffffffffffffffff16906020019092919080359060200190929190505050612039565b005b34801561088057600080fd5b506108b5600480360381019080803573ffffffffffffffffffffffffffffffffffffffff1690602001909291905050506123e5565b005b3480156108c357600080fd5b50610922600480360381019080803573ffffffffffffffffffffffffffffffffffffffff169060200190929190803573ffffffffffffffffffffffffffffffffffffffff169060200190929190803590602001909291905050506124e1565b604051808215151515815260200191505060405180910390f35b34801561094857600080fd5b5061097d600480360381019080803573ffffffffffffffffffffffffffffffffffffffff1690602001909291905050506129df565b005b34801561098b57600080fd5b506109ca600480360381019080803573ffffffffffffffffffffffffffffffffffffffff16906020019092919080359060200190929190505050612c1e565b005b3480156109d857600080fd5b50610a2d600480360381019080803573ffffffffffffffffffffffffffffffffffffffff169060200190929190803573ffffffffffffffffffffffffffffffffffffffff169060200190929190505050612fca565b6040518082815260200191505060405180910390f35b348015610a4f57600080fd5b50610aae600480360381019080803573ffffffffffffffffffffffffffffffffffffffff169060200190929190803573ffffffffffffffffffffffffffffffffffffffff16906020019092919080359060200190929190505050613100565b604051808215151515815260200191505060405180910390f35b348015610ad457600080fd5b50610b2f600480360381019080803590602001908201803590602001908080601f0160208091040260200160405190810160405280939291908181526020018383808284378201915050505050509192919290505050613277565b604051808215151515815260200191505060405180910390f35b348015610b5557600080fd5b50610b5e6133c8565b604051808273ffffffffffffffffffffffffffffffffffffffff1673ffffffffffffffffffffffffffffffffffffffff16815260200191505060405180910390f35b6000809054906101000a900473ffffffffffffffffffffffffffffffffffffffff1673ffffffffffffffffffffffffffffffffffffffff163373ffffffffffffffffffffffffffffffffffffffff16141515610bfb57600080fd5b806000806101000a81548173ffffffffffffffffffffffffffffffffffffffff021916908373ffffffffffffffffffffffffffffffffffffffff1602179055507fce241d7ca1f669fee44b6fc00b8eba2df3bb514eed0f6f668f8f89096e81ed946000809054906101000a900473ffffffffffffffffffffffffffffffffffffffff16604051808273ffffffffffffffffffffffffffffffffffffffff1673ffffffffffffffffffffffffffffffffffffffff16815260200191505060405180910390a150565b6000809054906101000a900473ffffffffffffffffffffffffffffffffffffffff1673ffffffffffffffffffffffffffffffffffffffff163373ffffffffffffffffffffffffffffffffffffffff16141515610d1d57600080fd5b80600460006101000a81548173ffffffffffffffffffffffffffffffffffffffff021916908373ffffffffffffffffffffffffffffffffffffffff16021790555050565b6000600360019054906101000a900473ffffffffffffffffffffffffffffffffffffffff1673ffffffffffffffffffffffffffffffffffffffff1663047fc9aa6040518163ffffffff167c0100000000000000000000000000000000000000000000000000000000028152600401602060405180830381600087803b158015610de957600080fd5b505af1158015610dfd573d6000803e3d6000fd5b505050506040513d6020811015610e1357600080fd5b8101908080519060200190929190505050905090565b6000610e3482613277565b8015610fb85750600160009054906101000a900473ffffffffffffffffffffffffffffffffffffffff1673ffffffffffffffffffffffffffffffffffffffff16638b51ca42600254846040518082805190602001908083835b602083101515610eb25780518252602082019150602081019050602083039250610e8d565b6001836020036101000a0380198251168184511680821785525050505050509050019150506040518091039020336040518463ffffffff167c010000000000000000000000000000000000000000000000000000000002815260040180846000191660001916815260200183600019166000191681526020018273ffffffffffffffffffffffffffffffffffffffff1673ffffffffffffffffffffffffffffffffffffffff1681526020019350505050602060405180830381600087803b158015610f7c57600080fd5b505af1158015610f90573d6000803e3d6000fd5b505050506040513d6020811015610fa657600080fd5b81019080805190602001909291905050505b9050919050565b6040805190810160405280600981526020017f72657374617274657200000000000000000000000000000000000000000000008152506000809054906101000a900473ffffffffffffffffffffffffffffffffffffffff1673ffffffffffffffffffffffffffffffffffffffff163373ffffffffffffffffffffffffffffffffffffffff161480611055575061105481610e29565b5b151561106057600080fd5b6000600360006101000a81548160ff02191690831515021790555050565b6000600580549050905090565b600760009054906101000a900460ff1681565b6000600460009054906101000a900473ffffffffffffffffffffffffffffffffffffffff1673ffffffffffffffffffffffffffffffffffffffff163373ffffffffffffffffffffffffffffffffffffffff161415156110f957fe5b8383600760009054906101000a900460ff168061116257506000809054906101000a900473ffffffffffffffffffffffffffffffffffffffff1673ffffffffffffffffffffffffffffffffffffffff168273ffffffffffffffffffffffffffffffffffffffff16145b806111b957506000809054906101000a900473ffffffffffffffffffffffffffffffffffffffff1673ffffffffffffffffffffffffffffffffffffffff168173ffffffffffffffffffffffffffffffffffffffff16145b806111ca57506111c982826133ee565b5b15156111d557600080fd5b600360019054906101000a900473ffffffffffffffffffffffffffffffffffffffff1673ffffffffffffffffffffffffffffffffffffffff1663e32d5cf8878761134a600360019054906101000a900473ffffffffffffffffffffffffffffffffffffffff1673ffffffffffffffffffffffffffffffffffffffff1663a32ce11e8c8c6040518363ffffffff167c0100000000000000000000000000000000000000000000000000000000028152600401808373ffffffffffffffffffffffffffffffffffffffff1673ffffffffffffffffffffffffffffffffffffffff1681526020018273ffffffffffffffffffffffffffffffffffffffff1673ffffffffffffffffffffffffffffffffffffffff16815260200192505050602060405180830381600087803b15801561130957600080fd5b505af115801561131d573d6000803e3d6000fd5b505050506040513d602081101561133357600080fd5b810190808051906020019092919050505089613522565b6040518463ffffffff167c0100000000000000000000000000000000000000000000000000000000028152600401808473ffffffffffffffffffffffffffffffffffffffff1673ffffffffffffffffffffffffffffffffffffffff1681526020018373ffffffffffffffffffffffffffffffffffffffff1673ffffffffffffffffffffffffffffffffffffffff1681526020018281526020019350505050600060405180830381600087803b15801561140257600080fd5b505af1158015611416573d6000803e3d6000fd5b50505050600360019054906101000a900473ffffffffffffffffffffffffffffffffffffffff1673ffffffffffffffffffffffffffffffffffffffff166328e69b168761155a600360019054906101000a900473ffffffffffffffffffffffffffffffffffffffff1673ffffffffffffffffffffffffffffffffffffffff166327e235e38b6040518263ffffffff167c0100000000000000000000000000000000000000000000000000000000028152600401808273ffffffffffffffffffffffffffffffffffffffff1673ffffffffffffffffffffffffffffffffffffffff168152602001915050602060405180830381600087803b15801561151957600080fd5b505af115801561152d573d6000803e3d6000fd5b505050506040513d602081101561154357600080fd5b810190808051906020019092919050505088613522565b6040518363ffffffff167c0100000000000000000000000000000000000000000000000000000000028152600401808373ffffffffffffffffffffffffffffffffffffffff1673ffffffffffffffffffffffffffffffffffffffff16815260200182815260200192505050600060405180830381600087803b1580156115df57600080fd5b505af11580156115f3573d6000803e3d6000fd5b50505050600360019054906101000a900473ffffffffffffffffffffffffffffffffffffffff1673ffffffffffffffffffffffffffffffffffffffff166328e69b1686611737600360019054906101000a900473ffffffffffffffffffffffffffffffffffffffff1673ffffffffffffffffffffffffffffffffffffffff166327e235e38a6040518263ffffffff167c0100000000000000000000000000000000000000000000000000000000028152600401808273ffffffffffffffffffffffffffffffffffffffff1673ffffffffffffffffffffffffffffffffffffffff168152602001915050602060405180830381600087803b1580156116f657600080fd5b505af115801561170a573d6000803e3d6000fd5b505050506040513d602081101561172057600080fd5b81019080805190602001909291905050508861353e565b6040518363ffffffff167c0100000000000000000000000000000000000000000000000000000000028152600401808373ffffffffffffffffffffffffffffffffffffffff1673ffffffffffffffffffffffffffffffffffffffff16815260200182815260200192505050600060405180830381600087803b1580156117bc57600080fd5b505af11580156117d0573d6000803e3d6000fd5b505050506001925050509392505050565b6000809054906101000a900473ffffffffffffffffffffffffffffffffffffffff1673ffffffffffffffffffffffffffffffffffffffff163373ffffffffffffffffffffffffffffffffffffffff1614151561183c57600080fd5b80600760006101000a81548160ff02191690831515021790555050565b600160009054906101000a900473ffffffffffffffffffffffffffffffffffffffff1681565b6040805190810160405280600581526020017f61646d696e0000000000000000000000000000000000000000000000000000008152506118be81610e29565b15156118c957600080fd5b6118d282611edb565b1515156118de57600080fd5b6101006005805490501015156118f357600080fd5b60058290806001815401808255809150509060018203906000526020600020016000909192909190915090600019169055507fa5d506d332e2fbbbb90028387456b914ac7868b62a517124dd26140d85460dec8260405180826000191660001916815260200191505060405180910390a15050565b6040805190810160405280600b81526020017f757365724d616e616765720000000000000000000000000000000000000000008152506119a781610e29565b15156119b257600080fd5b6119bb83611edb565b15156119c657600080fd5b6000600660008473ffffffffffffffffffffffffffffffffffffffff1673ffffffffffffffffffffffffffffffffffffffff1681526020019081526020016000206000856000191660001916815260200190815260200160002060006101000a81548160ff0219169083151502179055507fd46c98d1ab849c2a02ffd10a34d3c3f4089b6b290177e9a8beeedaf894c04da583836040518083600019166000191681526020018273ffffffffffffffffffffffffffffffffffffffff1673ffffffffffffffffffffffffffffffffffffffff1681526020019250505060405180910390a1505050565b60066020528160005260406000206020528060005260406000206000915091509054906101000a900460ff1681565b6040805190810160405280600781526020017f73746f70706572000000000000000000000000000000000000000000000000008152506000809054906101000a900473ffffffffffffffffffffffffffffffffffffffff1673ffffffffffffffffffffffffffffffffffffffff163373ffffffffffffffffffffffffffffffffffffffff161480611b745750611b7381610e29565b5b1515611b7f57600080fd5b6001600360006101000a81548160ff02191690831515021790555050565b600581815481101515611bac57fe5b906000526020600020016000915090505481565b6040805190810160405280600b81526020017f757365724d616e61676572000000000000000000000000000000000000000000815250611bff81610e29565b1515611c0a57600080fd5b611c1383611edb565b1515611c1e57600080fd5b6001600660008473ffffffffffffffffffffffffffffffffffffffff1673ffffffffffffffffffffffffffffffffffffffff1681526020019081526020016000206000856000191660001916815260200190815260200160002060006101000a81548160ff0219169083151502179055507f9ae5c799654d335786f50172a6d4cee45be7824601a09b0706d48d5ac69220cf83836040518083600019166000191681526020018273ffffffffffffffffffffffffffffffffffffffff1673ffffffffffffffffffffffffffffffffffffffff1681526020019250505060405180910390a1505050565b60008060008090505b6005805490508160ff161015611d6557836000191660058260ff16815481101515611d3757fe5b9060005260206000200154600019161415611d585780600192509250611d70565b8080600101915050611d10565b600080819150925092505b50915091565b6000600360019054906101000a900473ffffffffffffffffffffffffffffffffffffffff1673ffffffffffffffffffffffffffffffffffffffff166327e235e3836040518263ffffffff167c0100000000000000000000000000000000000000000000000000000000028152600401808273ffffffffffffffffffffffffffffffffffffffff1673ffffffffffffffffffffffffffffffffffffffff168152602001915050602060405180830381600087803b158015611e3557600080fd5b505af1158015611e49573d6000803e3d6000fd5b505050506040513d6020811015611e5f57600080fd5b81019080805190602001909291905050509050919050565b600360019054906101000a900473ffffffffffffffffffffffffffffffffffffffff1681565b600360009054906101000a900460ff1681565b6000809054906101000a900473ffffffffffffffffffffffffffffffffffffffff1681565b60025481565b600080611ee783611d07565b90508091505080915050919050565b6000806040805190810160405280600581526020017f61646d696e000000000000000000000000000000000000000000000000000000815250611f3881610e29565b1515611f4357600080fd5b611f4c84611d07565b8160ff1691508094508193505050821515611f6657600080fd5b600160058054905003821015611fba576005600160058054905003815481101515611f8d57fe5b9060005260206000200154600583815481101515611fa757fe5b9060005260206000200181600019169055505b6005600160058054905003815481101515611fd157fe5b906000526020600020016000905560058054600190039081611ff3919061355a565b507f16caca4d054acd6dc7362e8f47dc66a83a70be26221b729a4ab466d6b86d3e468460405180826000191660001916815260200191505060405180910390a150505050565b600460009054906101000a900473ffffffffffffffffffffffffffffffffffffffff1673ffffffffffffffffffffffffffffffffffffffff163373ffffffffffffffffffffffffffffffffffffffff1614151561209257fe5b600360019054906101000a900473ffffffffffffffffffffffffffffffffffffffff1673ffffffffffffffffffffffffffffffffffffffff166328e69b16836121d2600360019054906101000a900473ffffffffffffffffffffffffffffffffffffffff1673ffffffffffffffffffffffffffffffffffffffff166327e235e3876040518263ffffffff167c0100000000000000000000000000000000000000000000000000000000028152600401808273ffffffffffffffffffffffffffffffffffffffff1673ffffffffffffffffffffffffffffffffffffffff168152602001915050602060405180830381600087803b15801561219157600080fd5b505af11580156121a5573d6000803e3d6000fd5b505050506040513d60208110156121bb57600080fd5b810190808051906020019092919050505085613522565b6040518363ffffffff167c0100000000000000000000000000000000000000000000000000000000028152600401808373ffffffffffffffffffffffffffffffffffffffff1673ffffffffffffffffffffffffffffffffffffffff16815260200182815260200192505050600060405180830381600087803b15801561225757600080fd5b505af115801561226b573d6000803e3d6000fd5b50505050600360019054906101000a900473ffffffffffffffffffffffffffffffffffffffff1673ffffffffffffffffffffffffffffffffffffffff16633b4c4b25612377600360019054906101000a900473ffffffffffffffffffffffffffffffffffffffff1673ffffffffffffffffffffffffffffffffffffffff1663047fc9aa6040518163ffffffff167c0100000000000000000000000000000000000000000000000000000000028152600401602060405180830381600087803b15801561233657600080fd5b505af115801561234a573d6000803e3d6000fd5b505050506040513d602081101561236057600080fd5b810190808051906020019092919050505084613522565b6040518263ffffffff167c010000000000000000000000000000000000000000000000000000000002815260040180828152602001915050600060405180830381600087803b1580156123c957600080fd5b505af11580156123dd573d6000803e3d6000fd5b505050505050565b6000809054906101000a900473ffffffffffffffffffffffffffffffffffffffff1673ffffffffffffffffffffffffffffffffffffffff163373ffffffffffffffffffffffffffffffffffffffff1614151561244057600080fd5b600160009054906101000a900473ffffffffffffffffffffffffffffffffffffffff1673ffffffffffffffffffffffffffffffffffffffff163073ffffffffffffffffffffffffffffffffffffffff161415151561249d57600080fd5b80600160006101000a81548173ffffffffffffffffffffffffffffffffffffffff021916908373ffffffffffffffffffffffffffffffffffffffff16021790555050565b6000600460009054906101000a900473ffffffffffffffffffffffffffffffffffffffff1673ffffffffffffffffffffffffffffffffffffffff163373ffffffffffffffffffffffffffffffffffffffff1614151561253c57fe5b8383600760009054906101000a900460ff16806125a557506000809054906101000a900473ffffffffffffffffffffffffffffffffffffffff1673ffffffffffffffffffffffffffffffffffffffff168273ffffffffffffffffffffffffffffffffffffffff16145b806125fc57506000809054906101000a900473ffffffffffffffffffffffffffffffffffffffff1673ffffffffffffffffffffffffffffffffffffffff168173ffffffffffffffffffffffffffffffffffffffff16145b8061260d575061260c82826133ee565b5b151561261857600080fd5b600360019054906101000a900473ffffffffffffffffffffffffffffffffffffffff1673ffffffffffffffffffffffffffffffffffffffff166328e69b1687612758600360019054906101000a900473ffffffffffffffffffffffffffffffffffffffff1673ffffffffffffffffffffffffffffffffffffffff166327e235e38b6040518263ffffffff167c0100000000000000000000000000000000000000000000000000000000028152600401808273ffffffffffffffffffffffffffffffffffffffff1673ffffffffffffffffffffffffffffffffffffffff168152602001915050602060405180830381600087803b15801561271757600080fd5b505af115801561272b573d6000803e3d6000fd5b505050506040513d602081101561274157600080fd5b810190808051906020019092919050505088613522565b6040518363ffffffff167c0100000000000000000000000000000000000000000000000000000000028152600401808373ffffffffffffffffffffffffffffffffffffffff1673ffffffffffffffffffffffffffffffffffffffff16815260200182815260200192505050600060405180830381600087803b1580156127dd57600080fd5b505af11580156127f1573d6000803e3d6000fd5b50505050600360019054906101000a900473ffffffffffffffffffffffffffffffffffffffff1673ffffffffffffffffffffffffffffffffffffffff166328e69b1686612935600360019054906101000a900473ffffffffffffffffffffffffffffffffffffffff1673ffffffffffffffffffffffffffffffffffffffff166327e235e38a6040518263ffffffff167c0100000000000000000000000000000000000000000000000000000000028152600401808273ffffffffffffffffffffffffffffffffffffffff1673ffffffffffffffffffffffffffffffffffffffff168152602001915050602060405180830381600087803b1580156128f457600080fd5b505af1158015612908573d6000803e3d6000fd5b505050506040513d602081101561291e57600080fd5b81019080805190602001909291905050508861353e565b6040518363ffffffff167c0100000000000000000000000000000000000000000000000000000000028152600401808373ffffffffffffffffffffffffffffffffffffffff1673ffffffffffffffffffffffffffffffffffffffff16815260200182815260200192505050600060405180830381600087803b1580156129ba57600080fd5b505af11580156129ce573d6000803e3d6000fd5b505050506001925050509392505050565b6000809054906101000a900473ffffffffffffffffffffffffffffffffffffffff1673ffffffffffffffffffffffffffffffffffffffff163373ffffffffffffffffffffffffffffffffffffffff16141515612a3a57600080fd5b600460009054906101000a900473ffffffffffffffffffffffffffffffffffffffff1673ffffffffffffffffffffffffffffffffffffffff166371857000826040518263ffffffff167c0100000000000000000000000000000000000000000000000000000000028152600401808273ffffffffffffffffffffffffffffffffffffffff1673ffffffffffffffffffffffffffffffffffffffff168152602001915050600060405180830381600087803b158015612af757600080fd5b505af1158015612b0b573d6000803e3d6000fd5b50505050600360019054906101000a900473ffffffffffffffffffffffffffffffffffffffff1673ffffffffffffffffffffffffffffffffffffffff16633a3d523f826040518263ffffffff167c0100000000000000000000000000000000000000000000000000000000028152600401808273ffffffffffffffffffffffffffffffffffffffff1673ffffffffffffffffffffffffffffffffffffffff168152602001915050600060405180830381600087803b158015612bcc57600080fd5b505af1158015612be0573d6000803e3d6000fd5b505050506000809054906101000a900473ffffffffffffffffffffffffffffffffffffffff1673ffffffffffffffffffffffffffffffffffffffff16ff5b600460009054906101000a900473ffffffffffffffffffffffffffffffffffffffff1673ffffffffffffffffffffffffffffffffffffffff163373ffffffffffffffffffffffffffffffffffffffff16141515612c7757fe5b600360019054906101000a900473ffffffffffffffffffffffffffffffffffffffff1673ffffffffffffffffffffffffffffffffffffffff166328e69b1683612db7600360019054906101000a900473ffffffffffffffffffffffffffffffffffffffff1673ffffffffffffffffffffffffffffffffffffffff166327e235e3876040518263ffffffff167c0100000000000000000000000000000000000000000000000000000000028152600401808273ffffffffffffffffffffffffffffffffffffffff1673ffffffffffffffffffffffffffffffffffffffff168152602001915050602060405180830381600087803b158015612d7657600080fd5b505af1158015612d8a573d6000803e3d6000fd5b505050506040513d6020811015612da057600080fd5b81019080805190602001909291905050508561353e565b6040518363ffffffff167c0100000000000000000000000000000000000000000000000000000000028152600401808373ffffffffffffffffffffffffffffffffffffffff1673ffffffffffffffffffffffffffffffffffffffff16815260200182815260200192505050600060405180830381600087803b158015612e3c57600080fd5b505af1158015612e50573d6000803e3d6000fd5b50505050600360019054906101000a900473ffffffffffffffffffffffffffffffffffffffff1673ffffffffffffffffffffffffffffffffffffffff16633b4c4b25612f5c600360019054906101000a900473ffffffffffffffffffffffffffffffffffffffff1673ffffffffffffffffffffffffffffffffffffffff1663047fc9aa6040518163ffffffff167c0100000000000000000000000000000000000000000000000000000000028152600401602060405180830381600087803b158015612f1b57600080fd5b505af1158015612f2f573d6000803e3d6000fd5b505050506040513d6020811015612f4557600080fd5b81019080805190602001909291905050508461353e565b6040518263ffffffff167c010000000000000000000000000000000000000000000000000000000002815260040180828152602001915050600060405180830381600087803b158015612fae57600080fd5b505af1158015612fc2573d6000803e3d6000fd5b505050505050565b6000600360019054906101000a900473ffffffffffffffffffffffffffffffffffffffff1673ffffffffffffffffffffffffffffffffffffffff1663a32ce11e84846040518363ffffffff167c0100000000000000000000000000000000000000000000000000000000028152600401808373ffffffffffffffffffffffffffffffffffffffff1673ffffffffffffffffffffffffffffffffffffffff1681526020018273ffffffffffffffffffffffffffffffffffffffff1673ffffffffffffffffffffffffffffffffffffffff16815260200192505050602060405180830381600087803b1580156130bd57600080fd5b505af11580156130d1573d6000803e3d6000fd5b505050506040513d60208110156130e757600080fd5b8101908080519060200190929190505050905092915050565b6000600460009054906101000a900473ffffffffffffffffffffffffffffffffffffffff1673ffffffffffffffffffffffffffffffffffffffff163373ffffffffffffffffffffffffffffffffffffffff1614151561315b57fe5b600360019054906101000a900473ffffffffffffffffffffffffffffffffffffffff1673ffffffffffffffffffffffffffffffffffffffff1663e32d5cf88585856040518463ffffffff167c0100000000000000000000000000000000000000000000000000000000028152600401808473ffffffffffffffffffffffffffffffffffffffff1673ffffffffffffffffffffffffffffffffffffffff1681526020018373ffffffffffffffffffffffffffffffffffffffff1673ffffffffffffffffffffffffffffffffffffffff1681526020018281526020019350505050600060405180830381600087803b15801561325457600080fd5b505af1158015613268573d6000803e3d6000fd5b50505050600190509392505050565b6000600160009054906101000a900473ffffffffffffffffffffffffffffffffffffffff1673ffffffffffffffffffffffffffffffffffffffff16633037cea3600254846040518082805190602001908083835b6020831015156132f057805182526020820191506020810190506020830392506132cb565b6001836020036101000a03801982511681845116808217855250505050505090500191505060405180910390206040518363ffffffff167c0100000000000000000000000000000000000000000000000000000000028152600401808360001916600019168152602001826000191660001916815260200192505050602060405180830381600087803b15801561338657600080fd5b505af115801561339a573d6000803e3d6000fd5b505050506040513d60208110156133b057600080fd5b81019080805190602001909291905050509050919050565b600460009054906101000a900473ffffffffffffffffffffffffffffffffffffffff1681565b60008060008091505b6005805490508260ff1610156135155760058260ff1681548110151561341957fe5b90600052602060002001549050600660008673ffffffffffffffffffffffffffffffffffffffff1673ffffffffffffffffffffffffffffffffffffffff1681526020019081526020016000206000826000191660001916815260200190815260200160002060009054906101000a900460ff1680156134fa5750600660008573ffffffffffffffffffffffffffffffffffffffff1673ffffffffffffffffffffffffffffffffffffffff1681526020019081526020016000206000826000191660001916815260200190815260200160002060009054906101000a900460ff165b15613508576001925061351a565b81806001019250506133f7565b600092505b505092915050565b6000828284039150811115151561353857600080fd5b92915050565b6000828284019150811015151561355457600080fd5b92915050565b815481835581811115613581578183600052602060002091820191016135809190613586565b5b505050565b6135a891905b808211156135a457600081600090555060010161358c565b5090565b905600a165627a7a7230582069e4ff7dc1c484794fc66810d7bbf2dfff736b86094022d72fc8972334dcc7ef0029608060405234801561001057600080fd5b506040516040806109078339810180604052810190808051906020019092919080519060200190929190505050336000806101000a81548173ffffffffffffffffffffffffffffffffffffffff021916908373ffffffffffffffffffffffffffffffffffffffff16021790555081600460006101000a81548173ffffffffffffffffffffffffffffffffffffffff021916908373ffffffffffffffffffffffffffffffffffffffff160217905550806000806101000a81548173ffffffffffffffffffffffffffffffffffffffff021916908373ffffffffffffffffffffffffffffffffffffffff160217905550600154600260008060009054906101000a900473ffffffffffffffffffffffffffffffffffffffff1673ffffffffffffffffffffffffffffffffffffffff1673ffffffffffffffffffffffffffffffffffffffff168152602001908152602001600020819055505050610791806101766000396000f300608060405260043610610099576000357c0100000000000000000000000000000000000000000000000000000000900463ffffffff168063047fc9aa1461009e57806313af4035146100c957806327e235e31461010c57806328e69b16146101635780633a3d523f146101b05780633b4c4b25146101f35780638da5cb5b14610220578063a32ce11e14610277578063e32d5cf8146102ee575b600080fd5b3480156100aa57600080fd5b506100b361035b565b6040518082815260200191505060405180910390f35b3480156100d557600080fd5b5061010a600480360381019080803573ffffffffffffffffffffffffffffffffffffffff169060200190929190505050610361565b005b34801561011857600080fd5b5061014d600480360381019080803573ffffffffffffffffffffffffffffffffffffffff169060200190929190505050610483565b6040518082815260200191505060405180910390f35b34801561016f57600080fd5b506101ae600480360381019080803573ffffffffffffffffffffffffffffffffffffffff1690602001909291908035906020019092919050505061049b565b005b3480156101bc57600080fd5b506101f1600480360381019080803573ffffffffffffffffffffffffffffffffffffffff16906020019092919050505061053c565b005b3480156101ff57600080fd5b5061021e600480360381019080803590602001909291905050506105d9565b005b34801561022c57600080fd5b5061023561063c565b604051808273ffffffffffffffffffffffffffffffffffffffff1673ffffffffffffffffffffffffffffffffffffffff16815260200191505060405180910390f35b34801561028357600080fd5b506102d8600480360381019080803573ffffffffffffffffffffffffffffffffffffffff169060200190929190803573ffffffffffffffffffffffffffffffffffffffff169060200190929190505050610661565b6040518082815260200191505060405180910390f35b3480156102fa57600080fd5b50610359600480360381019080803573ffffffffffffffffffffffffffffffffffffffff169060200190929190803573ffffffffffffffffffffffffffffffffffffffff16906020019092919080359060200190929190505050610686565b005b60015481565b6000809054906101000a900473ffffffffffffffffffffffffffffffffffffffff1673ffffffffffffffffffffffffffffffffffffffff163373ffffffffffffffffffffffffffffffffffffffff161415156103bc57600080fd5b806000806101000a81548173ffffffffffffffffffffffffffffffffffffffff021916908373ffffffffffffffffffffffffffffffffffffffff1602179055507fce241d7ca1f669fee44b6fc00b8eba2df3bb514eed0f6f668f8f89096e81ed946000809054906101000a900473ffffffffffffffffffffffffffffffffffffffff16604051808273ffffffffffffffffffffffffffffffffffffffff1673ffffffffffffffffffffffffffffffffffffffff16815260200191505060405180910390a150565b60026020528060005260406000206000915090505481565b600460009054906101000a900473ffffffffffffffffffffffffffffffffffffffff1673ffffffffffffffffffffffffffffffffffffffff163373ffffffffffffffffffffffffffffffffffffffff161415156104f457fe5b80600260008473ffffffffffffffffffffffffffffffffffffffff1673ffffffffffffffffffffffffffffffffffffffff168152602001908152602001600020819055505050565b600460009054906101000a900473ffffffffffffffffffffffffffffffffffffffff1673ffffffffffffffffffffffffffffffffffffffff163373ffffffffffffffffffffffffffffffffffffffff1614151561059557fe5b80600460006101000a81548173ffffffffffffffffffffffffffffffffffffffff021916908373ffffffffffffffffffffffffffffffffffffffff16021790555050565b600460009054906101000a900473ffffffffffffffffffffffffffffffffffffffff1673ffffffffffffffffffffffffffffffffffffffff163373ffffffffffffffffffffffffffffffffffffffff1614151561063257fe5b8060018190555050565b6000809054906101000a900473ffffffffffffffffffffffffffffffffffffffff1681565b6003602052816000526040600020602052806000526040600020600091509150505481565b600460009054906101000a900473ffffffffffffffffffffffffffffffffffffffff1673ffffffffffffffffffffffffffffffffffffffff163373ffffffffffffffffffffffffffffffffffffffff161415156106df57fe5b80600360008573ffffffffffffffffffffffffffffffffffffffff1673ffffffffffffffffffffffffffffffffffffffff16815260200190815260200160002060008473ffffffffffffffffffffffffffffffffffffffff1673ffffffffffffffffffffffffffffffffffffffff168152602001908152602001600020819055505050505600a165627a7a72305820e07e73a28b152cb8c34f825f1e0a34970de4f43e681f6152252f7e88cbdd27060029",
  "source": "// Copyright (c) 2018 Company Inc.\n//\n// Licensed under the Apache License, Version 2.0 (the \"License\");\n// you may not use this file except in compliance with the License.\n// You may obtain a copy of the License at\n//\n//     http://www.apache.org/licenses/LICENSE-2.0\n//\n// Unless required by applicable law or agreed to in writing, software\n// distributed under the License is distributed on an \"AS IS\" BASIS,\n// WITHOUT WARRANTIES OR CONDITIONS OF ANY KIND, either express or implied.\n// See the License for the specific language governing permissions and\n// limitations under the License.\n\npragma solidity ^0.4.23;\n\nimport \"../Math.sol\";\nimport \"../authority/Roles.sol\";\nimport \"./Token.sol\";\nimport \"./TokenData.sol\";\nimport \"./ERC223_receiving_contract.sol\";\n\ninterface TokenLogicI {\n    // we have slightly different interface then ERC20, because\n    function totalSupply() external view returns (uint256 supply);\n    function balanceOf( address who ) external view returns (uint256 value);\n    function allowance( address owner, address spender ) external view returns (uint256 _allowance);\n    function transferFrom( address from, address to, uint256 value) external returns (bool ok);\n    // ERC20 assumes that msg.sender is the owner, but because logic contract is\n    // behind a proxy we need to add the owner parameter.\n    function transfer( address owner, address to, uint256 value) external returns (bool ok);\n    function approve( address owner, address spender, uint256 value ) external returns (bool ok);\n\n    function setToken(address token_) external;\n    function mintFor(address dest, uint256 wad) external;\n    function burn(address src, uint256 wad) external;\n}\n\n\ncontract TokenLogicEvents {\n    event WhiteListAddition(bytes32 listName);\n    event AdditionToWhiteList(bytes32 listName, address guy);\n    event WhiteListRemoval(bytes32 listName);\n    event RemovalFromWhiteList(bytes32 listName, address guy);\n}\n\n\ncontract TokenLogic is TokenLogicEvents, TokenLogicI, SecuredWithRoles {\n\n    TokenData public data;\n    Token public token;     // facade: Token.sol:Token\n\n    /* White lists are used to restrict who can transact with whom.\n     * Since we can't iterate over the mapping we need to store the keys separaterly in the\n     *   listNames\n     */\n    bytes32[] public listNames;\n    mapping (address => mapping (bytes32 => bool)) public whiteLists;\n    // by default there is no need for white listing addresses, anyone can transact freely\n    bool public freeTransfer = true;\n\n    constructor (\n        address token_,\n        address tokenData_,\n        address rolesContract) public SecuredWithRoles(\"TokenLogic\", rolesContract)\n    {\n        require(token_ != address(0x0));\n        require(rolesContract != address(0x0));\n\n        token = Token(token_);\n        if (tokenData_ == address(0x0)) {\n            data = new TokenData(this, msg.sender);\n        } else {\n            data = TokenData(tokenData_);\n        }\n    }\n\n    modifier tokenOnly {\n        assert(msg.sender == address(token));\n        _;\n    }\n\n    /* check that freeTransfer is true or that the owner is involved or both sender and recipient are in the same whitelist*/\n    modifier canTransfer(address src, address dst) {\n        require(freeTransfer || src == owner || dst == owner || sameWhiteList(src, dst));\n        _;\n    }\n\n    function listNamesLen() public view returns (uint256) {\n        return listNames.length;\n    }\n\n    function listExists(bytes32 listName) public view returns (bool) {\n        bool ok;\n        (, ok) = indexOf(listName);\n        return ok;\n    }\n\n    function indexOf(bytes32 listName) public view returns (uint8, bool) {\n        for (uint8 i = 0; i < listNames.length; i++) {\n            if (listNames[i] == listName) {\n                return (i, true);\n            }\n        }\n        return (0, false);\n    }\n\n    function replaceLogic(address newLogic) public onlyOwner {\n        token.setLogic(TokenLogicI(newLogic));\n        data.setTokenLogic(newLogic);\n        selfdestruct(owner);\n    }\n\n    /* creating a removeWhiteList would be too onerous. Therefore it does not exist*/\n    function addWhiteList(bytes32 listName) public onlyRole(\"admin\") {\n        require(! listExists(listName));\n        require(listNames.length < 256);\n        listNames.push(listName);\n        emit WhiteListAddition(listName);\n    }\n\n    function removeWhiteList(bytes32 listName) public onlyRole(\"admin\") {\n        bool ok;\n        uint i;\n        (i, ok) = indexOf(listName);\n        require(ok);\n        if (i < listNames.length - 1) {\n            listNames[i] = listNames[listNames.length - 1];\n        }\n        delete listNames[listNames.length - 1];\n        --listNames.length;\n        emit WhiteListRemoval(listName);\n    }\n\n    function addToWhiteList(bytes32 listName, address guy) public onlyRole(\"userManager\") {\n        require(listExists(listName));\n\n        whiteLists[guy][listName] = true;\n        emit AdditionToWhiteList(listName, guy);\n    }\n\n    function removeFromWhiteList(bytes32 listName, address guy) public onlyRole(\"userManager\") {\n        require(listExists(listName));\n\n        whiteLists[guy][listName] = false;\n        emit RemovalFromWhiteList(listName, guy);\n    }\n\n    function setFreeTransfer(bool isFree) public onlyOwner {\n        freeTransfer = isFree;\n    }\n\n    function setToken(address token_) public onlyOwner {\n        token = Token(token_);\n    }\n\n    function totalSupply() public view returns (uint256) {\n        return data.supply();\n    }\n\n    function balanceOf(address src) public view returns (uint256) {\n        return data.balances(src);\n    }\n\n    function allowance(address src, address spender) public view returns (uint256) {\n        return data.approvals(src, spender);\n    }\n\n    function transfer(address src, address dst, uint wad) public tokenOnly canTransfer(src, dst)  returns (bool) {\n        data.setBalances(src, Math.sub(data.balances(src), wad));\n        data.setBalances(dst, Math.add(data.balances(dst), wad));\n        return true;\n    }\n\n    function transferFrom(address src, address dst, uint256 wad) public tokenOnly canTransfer(src, dst)  returns (bool) {\n        // balance and approval check is not needed because sub(a, b) will throw if a<b\n        data.setApprovals(src, dst, Math.sub(data.approvals(src, dst), wad));\n        data.setBalances(src, Math.sub(data.balances(src), wad));\n        data.setBalances(dst, Math.add(data.balances(dst), wad));\n\n        return true;\n    }\n\n    function approve(address src, address dst, uint256 wad) public tokenOnly returns (bool) {\n        data.setApprovals(src, dst, wad);\n        return true;\n    }\n\n    function mintFor(address dst, uint256 wad) public tokenOnly {\n        data.setBalances(dst, Math.add(data.balances(dst), wad));\n        data.setSupply(Math.add(data.supply(), wad));\n    }\n\n    function burn(address src, uint256 wad) public tokenOnly {\n        data.setBalances(src, Math.sub(data.balances(src), wad));\n        data.setSupply(Math.sub(data.supply(), wad));\n    }\n\n    // internal functions //\n\n    function sameWhiteList(address src, address dst) internal view returns(bool) {\n        for (uint8 i = 0; i < listNames.length; i++) {\n            bytes32 listName = listNames[i];\n            if (whiteLists[src][listName] && whiteLists[dst][listName]) {\n                return true;\n            }\n        }\n        return false;\n    }\n}\n",
  "sourcePath": "/Users/mbenhajla/Documents/TrecentoProject/fund-smart-contract/contracts/tokens/TokenLogic.sol",
  "compiler": {
    "name": "solc",
    "version": "0.4.23+commit.124ca40d.Emscripten.clang"
  },
  "schemaVersion": "2.0.0",
  "updatedAt": "2018-06-07T14:07:40.647Z"
}